{
  "_format": "hh-sol-artifact-1",
  "contractName": "CreditPassport",
  "sourceName": "src/CreditPassport.sol",
  "abi": [
    {
      "inputs": [
        {
          "internalType": "address",
          "name": "initialOwner",
          "type": "address"
        }
      ],
      "stateMutability": "nonpayable",
      "type": "constructor"
    },
    {
      "anonymous": false,
      "inputs": [
        {
          "indexed": true,
          "internalType": "address",
          "name": "owner",
          "type": "address"
        },
        {
          "indexed": true,
          "internalType": "address",
          "name": "approved",
          "type": "address"
        },
        {
          "indexed": true,
          "internalType": "uint256",
          "name": "tokenId",
          "type": "uint256"
        }
      ],
      "name": "Approval",
      "type": "event"
    },
    {
      "anonymous": false,
      "inputs": [
        {
          "indexed": true,
          "internalType": "address",
          "name": "owner",
          "type": "address"
        },
        {
          "indexed": true,
          "internalType": "address",
          "name": "operator",
          "type": "address"
        },
        {
          "indexed": false,
          "internalType": "bool",
          "name": "approved",
          "type": "bool"
        }
      ],
      "name": "ApprovalForAll",
      "type": "event"
    },
    {
      "anonymous": false,
      "inputs": [
        {
          "indexed": false,
          "internalType": "uint256",
          "name": "_fromTokenId",
          "type": "uint256"
        },
        {
          "indexed": false,
          "internalType": "uint256",
          "name": "_toTokenId",
          "type": "uint256"
        }
      ],
      "name": "BatchMetadataUpdate",
      "type": "event"
    },
    {
      "anonymous": false,
      "inputs": [
        {
          "indexed": false,
          "internalType": "uint256",
          "name": "_tokenId",
          "type": "uint256"
        }
      ],
      "name": "MetadataUpdate",
      "type": "event"
    },
    {
      "anonymous": false,
      "inputs": [
        {
          "indexed": true,
          "internalType": "address",
          "name": "previousOwner",
          "type": "address"
        },
        {
          "indexed": true,
          "internalType": "address",
          "name": "newOwner",
          "type": "address"
        }
      ],
      "name": "OwnershipTransferred",
      "type": "event"
    },
    {
      "anonymous": false,
      "inputs": [
        {
          "indexed": true,
          "internalType": "address",
          "name": "wallet",
          "type": "address"
        },
        {
          "indexed": false,
          "internalType": "uint256",
          "name": "tokenId",
          "type": "uint256"
        },
        {
          "indexed": false,
          "internalType": "uint256",
          "name": "initialScore",
          "type": "uint256"
        }
      ],
      "name": "PassportMinted",
      "type": "event"
    },
    {
      "anonymous": false,
      "inputs": [
        {
          "indexed": true,
          "internalType": "address",
          "name": "wallet",
          "type": "address"
        },
        {
          "indexed": false,
          "internalType": "uint256",
          "name": "oldScore",
          "type": "uint256"
        },
        {
          "indexed": false,
          "internalType": "uint256",
          "name": "newScore",
          "type": "uint256"
        },
        {
          "indexed": false,
          "internalType": "string",
          "name": "reputationLevel",
          "type": "string"
        }
      ],
      "name": "ScoreUpdated",
      "type": "event"
    },
    {
      "anonymous": false,
      "inputs": [
        {
          "indexed": true,
          "internalType": "address",
          "name": "from",
          "type": "address"
        },
        {
          "indexed": true,
          "internalType": "address",
          "name": "to",
          "type": "address"
        },
        {
          "indexed": true,
          "internalType": "uint256",
          "name": "tokenId",
          "type": "uint256"
        }
      ],
      "name": "Transfer",
      "type": "event"
    },
    {
      "inputs": [],
      "name": "INITIAL_SCORE",
      "outputs": [
        {
          "internalType": "uint256",
          "name": "",
          "type": "uint256"
        }
      ],
      "stateMutability": "view",
      "type": "function"
    },
    {
      "inputs": [],
      "name": "MAX_SCORE",
      "outputs": [
        {
          "internalType": "uint256",
          "name": "",
          "type": "uint256"
        }
      ],
      "stateMutability": "view",
      "type": "function"
    },
    {
      "inputs": [],
      "name": "MIN_SCORE",
      "outputs": [
        {
          "internalType": "uint256",
          "name": "",
          "type": "uint256"
        }
      ],
      "stateMutability": "view",
      "type": "function"
    },
    {
      "inputs": [
        {
          "internalType": "address",
          "name": "to",
          "type": "address"
        },
        {
          "internalType": "uint256",
          "name": "tokenId",
          "type": "uint256"
        }
      ],
      "name": "approve",
      "outputs": [],
      "stateMutability": "nonpayable",
      "type": "function"
    },
    {
      "inputs": [
        {
          "internalType": "address",
          "name": "owner",
          "type": "address"
        }
      ],
      "name": "balanceOf",
      "outputs": [
        {
          "internalType": "uint256",
          "name": "",
          "type": "uint256"
        }
      ],
      "stateMutability": "view",
      "type": "function"
    },
    {
      "inputs": [],
      "name": "creditDelegationContract",
      "outputs": [
        {
          "internalType": "address",
          "name": "",
          "type": "address"
        }
      ],
      "stateMutability": "view",
      "type": "function"
    },
    {
      "inputs": [
        {
          "internalType": "uint256",
          "name": "tokenId",
          "type": "uint256"
        }
      ],
      "name": "getApproved",
      "outputs": [
        {
          "internalType": "address",
          "name": "",
          "type": "address"
        }
      ],
      "stateMutability": "view",
      "type": "function"
    },
    {
      "inputs": [
        {
          "internalType": "address",
          "name": "wallet",
          "type": "address"
        }
      ],
      "name": "getPassport",
      "outputs": [
        {
          "internalType": "uint256",
          "name": "creditScore",
          "type": "uint256"
        },
        {
          "internalType": "uint256",
          "name": "verifiedPayments",
          "type": "uint256"
        },
        {
          "internalType": "uint256",
          "name": "repaymentRate",
          "type": "uint256"
        },
        {
          "internalType": "string",
          "name": "reputationLevel",
          "type": "string"
        },
        {
          "internalType": "uint256",
          "name": "loanEligibility",
          "type": "uint256"
        },
        {
          "internalType": "string",
          "name": "ipfsHash",
          "type": "string"
        },
        {
          "internalType": "uint256",
          "name": "tokenId",
          "type": "uint256"
        },
        {
          "internalType": "bool",
          "name": "exists",
          "type": "bool"
        }
      ],
      "stateMutability": "view",
      "type": "function"
    },
    {
      "inputs": [
        {
          "internalType": "address",
          "name": "wallet",
          "type": "address"
        }
      ],
      "name": "hasPassport",
      "outputs": [
        {
          "internalType": "bool",
          "name": "",
          "type": "bool"
        }
      ],
      "stateMutability": "view",
      "type": "function"
    },
    {
      "inputs": [
        {
          "internalType": "address",
          "name": "owner",
          "type": "address"
        },
        {
          "internalType": "address",
          "name": "operator",
          "type": "address"
        }
      ],
      "name": "isApprovedForAll",
      "outputs": [
        {
          "internalType": "bool",
          "name": "",
          "type": "bool"
        }
      ],
      "stateMutability": "view",
      "type": "function"
    },
    {
      "inputs": [
        {
          "internalType": "address",
          "name": "wallet",
          "type": "address"
        }
      ],
      "name": "mintPassport",
      "outputs": [
        {
          "internalType": "uint256",
          "name": "",
          "type": "uint256"
        }
      ],
      "stateMutability": "nonpayable",
      "type": "function"
    },
    {
      "inputs": [],
      "name": "name",
      "outputs": [
        {
          "internalType": "string",
          "name": "",
          "type": "string"
        }
      ],
      "stateMutability": "view",
      "type": "function"
    },
    {
      "inputs": [],
      "name": "owner",
      "outputs": [
        {
          "internalType": "address",
          "name": "",
          "type": "address"
        }
      ],
      "stateMutability": "view",
      "type": "function"
    },
    {
      "inputs": [
        {
          "internalType": "uint256",
          "name": "tokenId",
          "type": "uint256"
        }
      ],
      "name": "ownerOf",
      "outputs": [
        {
          "internalType": "address",
          "name": "",
          "type": "address"
        }
      ],
      "stateMutability": "view",
      "type": "function"
    },
    {
      "inputs": [
        {
          "internalType": "address",
          "name": "",
          "type": "address"
        }
      ],
      "name": "passports",
      "outputs": [
        {
          "internalType": "uint256",
          "name": "creditScore",
          "type": "uint256"
        },
        {
          "internalType": "uint256",
          "name": "verifiedPayments",
          "type": "uint256"
        },
        {
          "internalType": "uint256",
          "name": "repaymentRate",
          "type": "uint256"
        },
        {
          "internalType": "string",
          "name": "reputationLevel",
          "type": "string"
        },
        {
          "internalType": "uint256",
          "name": "loanEligibility",
          "type": "uint256"
        },
        {
          "internalType": "string",
          "name": "ipfsHash",
          "type": "string"
        },
        {
          "internalType": "uint256",
          "name": "tokenId",
          "type": "uint256"
        },
        {
          "internalType": "bool",
          "name": "exists",
          "type": "bool"
        }
      ],
      "stateMutability": "view",
      "type": "function"
    },
    {
      "inputs": [],
      "name": "paymentVerificationContract",
      "outputs": [
        {
          "internalType": "address",
          "name": "",
          "type": "address"
        }
      ],
      "stateMutability": "view",
      "type": "function"
    },
    {
      "inputs": [],
      "name": "renounceOwnership",
      "outputs": [],
      "stateMutability": "nonpayable",
      "type": "function"
    },
    {
      "inputs": [
        {
          "internalType": "address",
          "name": "wallet",
          "type": "address"
        }
      ],
      "name": "resetPassport",
      "outputs": [],
      "stateMutability": "nonpayable",
      "type": "function"
    },
    {
      "inputs": [
        {
          "internalType": "address",
          "name": "from",
          "type": "address"
        },
        {
          "internalType": "address",
          "name": "to",
          "type": "address"
        },
        {
          "internalType": "uint256",
          "name": "tokenId",
          "type": "uint256"
        }
      ],
      "name": "safeTransferFrom",
      "outputs": [],
      "stateMutability": "nonpayable",
      "type": "function"
    },
    {
      "inputs": [
        {
          "internalType": "address",
          "name": "from",
          "type": "address"
        },
        {
          "internalType": "address",
          "name": "to",
          "type": "address"
        },
        {
          "internalType": "uint256",
          "name": "tokenId",
          "type": "uint256"
        },
        {
          "internalType": "bytes",
          "name": "data",
          "type": "bytes"
        }
      ],
      "name": "safeTransferFrom",
      "outputs": [],
      "stateMutability": "nonpayable",
      "type": "function"
    },
    {
      "inputs": [
        {
          "internalType": "address",
          "name": "operator",
          "type": "address"
        },
        {
          "internalType": "bool",
          "name": "approved",
          "type": "bool"
        }
      ],
      "name": "setApprovalForAll",
      "outputs": [],
      "stateMutability": "nonpayable",
      "type": "function"
    },
    {
      "inputs": [
        {
          "internalType": "address",
          "name": "_contract",
          "type": "address"
        }
      ],
      "name": "setCreditDelegationContract",
      "outputs": [],
      "stateMutability": "nonpayable",
      "type": "function"
    },
    {
      "inputs": [
        {
          "internalType": "address",
          "name": "_contract",
          "type": "address"
        }
      ],
      "name": "setPaymentVerificationContract",
      "outputs": [],
      "stateMutability": "nonpayable",
      "type": "function"
    },
    {
      "inputs": [
        {
          "internalType": "bytes4",
          "name": "interfaceId",
          "type": "bytes4"
        }
      ],
      "name": "supportsInterface",
      "outputs": [
        {
          "internalType": "bool",
          "name": "",
          "type": "bool"
        }
      ],
      "stateMutability": "view",
      "type": "function"
    },
    {
      "inputs": [],
      "name": "symbol",
      "outputs": [
        {
          "internalType": "string",
          "name": "",
          "type": "string"
        }
      ],
      "stateMutability": "view",
      "type": "function"
    },
    {
      "inputs": [
        {
          "internalType": "uint256",
          "name": "",
          "type": "uint256"
        }
      ],
      "name": "tokenToWallet",
      "outputs": [
        {
          "internalType": "address",
          "name": "",
          "type": "address"
        }
      ],
      "stateMutability": "view",
      "type": "function"
    },
    {
      "inputs": [
        {
          "internalType": "uint256",
          "name": "tokenId",
          "type": "uint256"
        }
      ],
      "name": "tokenURI",
      "outputs": [
        {
          "internalType": "string",
          "name": "",
          "type": "string"
        }
      ],
      "stateMutability": "view",
      "type": "function"
    },
    {
      "inputs": [
        {
          "internalType": "address",
          "name": "from",
          "type": "address"
        },
        {
          "internalType": "address",
          "name": "to",
          "type": "address"
        },
        {
          "internalType": "uint256",
          "name": "tokenId",
          "type": "uint256"
        }
      ],
      "name": "transferFrom",
      "outputs": [],
      "stateMutability": "nonpayable",
      "type": "function"
    },
    {
      "inputs": [
        {
          "internalType": "address",
          "name": "newOwner",
          "type": "address"
        }
      ],
      "name": "transferOwnership",
      "outputs": [],
      "stateMutability": "nonpayable",
      "type": "function"
    },
    {
      "inputs": [
        {
          "internalType": "address",
          "name": "wallet",
          "type": "address"
        },
        {
          "internalType": "int256",
          "name": "delta",
          "type": "int256"
        },
        {
          "internalType": "string",
          "name": "newIpfsHash",
          "type": "string"
        }
      ],
      "name": "updateScore",
      "outputs": [],
      "stateMutability": "nonpayable",
      "type": "function"
    },
    {
      "inputs": [
        {
          "internalType": "address",
          "name": "",
          "type": "address"
        }
      ],
      "name": "walletToToken",
      "outputs": [
        {
          "internalType": "uint256",
          "name": "",
          "type": "uint256"
        }
      ],
      "stateMutability": "view",
      "type": "function"
    }
  ],
  "bytecode": "0x60806040523480156200001157600080fd5b50604051620029623803806200296283398101604081905262000034916200012c565b6040518060400160405280601881526020017f437265644c696e6b204372656469742050617373706f72740000000000000000815250604051806040016040528060048152602001630434c43560e41b815250816000908162000098919062000203565b506001620000a7828262000203565b505050620000c4620000be620000d660201b60201c565b620000da565b620000cf81620000da565b50620002cf565b3390565b600780546001600160a01b038381166001600160a01b0319831681179093556040519116919082907f8be0079c531659141344cd1fd0a4f28419497f9722a3daafe3b4186f6b6457e090600090a35050565b6000602082840312156200013f57600080fd5b81516001600160a01b03811681146200015757600080fd5b9392505050565b634e487b7160e01b600052604160045260246000fd5b600181811c908216806200018957607f821691505b602082108103620001aa57634e487b7160e01b600052602260045260246000fd5b50919050565b601f821115620001fe57600081815260208120601f850160051c81016020861015620001d95750805b601f850160051c820191505b81811015620001fa57828155600101620001e5565b5050505b505050565b81516001600160401b038111156200021f576200021f6200015e565b620002378162000230845462000174565b84620001b0565b602080601f8311600181146200026f5760008415620002565750858301515b600019600386901b1c1916600185901b178555620001fa565b600085815260208120601f198616915b82811015620002a0578886015182559484019460019091019084016200027f565b5085821015620002bf5787850151600019600388901b60f8161c191681555b5050505050600190811b01905550565b61268380620002df6000396000f3fe608060405234801561001057600080fd5b50600436106101e55760003560e01c80636352211e1161010f578063b88d4fde116100a2578063e37c132b11610071578063e37c132b1461043d578063e985e9c514610450578063f2fde38b14610463578063fe7971f81461047657600080fd5b8063b88d4fde14610404578063bd54847014610417578063c87b56dd1461042a578063de330373146102d757600080fd5b80638da5cb5b116100de5780638da5cb5b146103c557806395d89b41146103d657806396777172146103de578063a22cb465146103f157600080fd5b80636352211e1461036e57806369061d0e1461038157806370a08231146103aa578063715018a6146103bd57600080fd5b806327ff6223116101875780634d6e21aa116101565780634d6e21aa146102f25780634dc30e871461030557806357a5893c1461033457806357fc6e3c1461035b57600080fd5b806327ff6223146102bb5780633262fb13146102c457806340b89270146102d757806342842e0e146102df57600080fd5b8063081812fc116101c3578063081812fc14610255578063095ea7b3146102805780630cc9ec5b1461029557806323b872dd146102a857600080fd5b806301ffc9a7146101ea57806303a1b24e1461021257806306fdde0314610240575b600080fd5b6101fd6101f8366004611ed7565b610489565b60405190151581526020015b60405180910390f35b610232610220366004611f0b565b600a6020526000908152604090205481565b604051908152602001610209565b6102486104b4565b6040516102099190611f76565b610268610263366004611f89565b610546565b6040516001600160a01b039091168152602001610209565b61029361028e366004611fa2565b61056d565b005b6102936102a3366004612058565b610687565b6102936102b63660046120c3565b6108b5565b61023261035281565b6102936102d2366004611f0b565b6108e6565b610232600081565b6102936102ed3660046120c3565b610ac1565b610293610300366004611f0b565b610adc565b6101fd610313366004611f0b565b6001600160a01b031660009081526009602052604090206007015460ff1690565b610347610342366004611f0b565b610b06565b6040516102099897969594939291906120ff565b600d54610268906001600160a01b031681565b61026861037c366004611f89565b610cf5565b61026861038f366004611f89565b600b602052600090815260409020546001600160a01b031681565b6102326103b8366004611f0b565b610d55565b610293610ddb565b6007546001600160a01b0316610268565b610248610def565b6102936103ec366004611f0b565b610dfe565b6102936103ff36600461215c565b610e28565b610293610412366004612198565b610e37565b610232610425366004611f0b565b610e6f565b610248610438366004611f89565b6110ff565b61034761044b366004611f0b565b61120f565b6101fd61045e366004612214565b611366565b610293610471366004611f0b565b611394565b600c54610268906001600160a01b031681565b60006001600160e01b03198216632483248360e11b14806104ae57506104ae8261140d565b92915050565b6060600080546104c390612247565b80601f01602080910402602001604051908101604052809291908181526020018280546104ef90612247565b801561053c5780601f106105115761010080835404028352916020019161053c565b820191906000526020600020905b81548152906001019060200180831161051f57829003601f168201915b5050505050905090565b60006105518261145d565b506000908152600460205260409020546001600160a01b031690565b600061057882610cf5565b9050806001600160a01b0316836001600160a01b0316036105ea5760405162461bcd60e51b815260206004820152602160248201527f4552433732313a20617070726f76616c20746f2063757272656e74206f776e656044820152603960f91b60648201526084015b60405180910390fd5b336001600160a01b038216148061060657506106068133611366565b6106785760405162461bcd60e51b815260206004820152603d60248201527f4552433732313a20617070726f76652063616c6c6572206973206e6f7420746f60448201527f6b656e206f776e6572206f7220617070726f76656420666f7220616c6c00000060648201526084016105e1565b61068283836114bc565b505050565b6007546001600160a01b03163314806106aa5750600c546001600160a01b031633145b806106bf5750600d546001600160a01b031633145b6106f95760405162461bcd60e51b815260206004820152600b60248201526a086a0be9c9ea8be82aaa8960ab1b60448201526064016105e1565b6001600160a01b03831660009081526009602052604090206007015460ff166107555760405162461bcd60e51b815260206004820152600e60248201526d10d417d393d7d41054d4d413d49560921b60448201526064016105e1565b6001600160a01b03831660009081526009602052604081208054909184126107a557836103526107858284612297565b11610799576107948183612297565b61079d565b6103525b8355506107d0565b60006107b0856122aa565b9050818110156107c9576107c481836122c6565b6107cc565b60005b8355505b60008413156107f45760018260010160008282546107ee9190612297565b90915550505b81546108019060146122d9565b600483015581546108119061152a565b6003830190610820908261233e565b508251156108645760058201610836848261233e565b5061086482600601548460405160200161085091906123fe565b6040516020818303038152906040526115cf565b81546040516001600160a01b038716917f7e2add12a328a86680ec5cfd32c70eaa4590ecb9df3e614e146da05d547a5e30916108a6918591600388019061242d565b60405180910390a25050505050565b6108bf338261169a565b6108db5760405162461bcd60e51b81526004016105e1906124c7565b6106828383836116f8565b6108ee61185c565b6001600160a01b03811660009081526009602052604090206007015460ff166109595760405162461bcd60e51b815260206004820152601760248201527f50617373706f727420646f6573206e6f7420657869737400000000000000000060448201526064016105e1565b6001600160a01b0381166000818152600a6020908152604080832054815161010081018352848152808401858152606482850190815284518086018652600681526542726f6e7a6560d01b8188015260608401908152608084018890528551808801875288815260a085015260c08401859052600160e0850181905298885260099096529390952081518155945195850195909555905160028401559051909291906003820190610a0a908261233e565b506080820151600482015560a08201516005820190610a29908261233e565b5060c0820151600682015560e0909101516007909101805491151560ff199092169190911790556040516001600160a01b038316907f7e2add12a328a86680ec5cfd32c70eaa4590ecb9df3e614e146da05d547a5e3090610ab590600090819091825260208201526060604082018190526006908201526542726f6e7a6560d01b608082015260a00190565b60405180910390a25050565b61068283838360405180602001604052806000815250610e37565b610ae461185c565b600c80546001600160a01b0319166001600160a01b0392909216919091179055565b60008060006060600060606000806000600960008b6001600160a01b03166001600160a01b0316815260200190815260200160002060405180610100016040529081600082015481526020016001820154815260200160028201548152602001600382018054610b7590612247565b80601f0160208091040260200160405190810160405280929190818152602001828054610ba190612247565b8015610bee5780601f10610bc357610100808354040283529160200191610bee565b820191906000526020600020905b815481529060010190602001808311610bd157829003601f168201915b5050505050815260200160048201548152602001600582018054610c1190612247565b80601f0160208091040260200160405190810160405280929190818152602001828054610c3d90612247565b8015610c8a5780601f10610c5f57610100808354040283529160200191610c8a565b820191906000526020600020905b815481529060010190602001808311610c6d57829003601f168201915b5050509183525050600682015460208083019190915260079092015460ff161515604091820152825191830151908301516060840151608085015160a086015160c087015160e090970151959f50939d50919b50995097509550909350915050919395975091939597565b6000818152600260205260408120546001600160a01b0316806104ae5760405162461bcd60e51b8152602060048201526018602482015277115490cdcc8c4e881a5b9d985b1a59081d1bdad95b88125160421b60448201526064016105e1565b60006001600160a01b038216610dbf5760405162461bcd60e51b815260206004820152602960248201527f4552433732313a2061646472657373207a65726f206973206e6f7420612076616044820152683634b21037bbb732b960b91b60648201526084016105e1565b506001600160a01b031660009081526003602052604090205490565b610de361185c565b610ded60006118b6565b565b6060600180546104c390612247565b610e0661185c565b600d80546001600160a01b0319166001600160a01b0392909216919091179055565b610e33338383611908565b5050565b610e41338361169a565b610e5d5760405162461bcd60e51b81526004016105e1906124c7565b610e69848484846119d6565b50505050565b6000610e836007546001600160a01b031690565b6001600160a01b0316336001600160a01b03161480610eac5750600c546001600160a01b031633145b80610ec15750600d546001600160a01b031633145b610efb5760405162461bcd60e51b815260206004820152600b60248201526a086a0be9c9ea8be82aaa8960ab1b60448201526064016105e1565b6001600160a01b03821660009081526009602052604090206007015460ff1615610f675760405162461bcd60e51b815260206004820152601760248201527f50617373706f727420616c72656164792065786973747300000000000000000060448201526064016105e1565b60088054906000610f7783612514565b9091555050600854610f898382611a09565b6040518061010001604052806000815260200160008152602001606481526020016040518060400160405280600681526020016542726f6e7a6560d01b815250815260200160006014610fdc91906122d9565b81526040805160208181018352600080835281850192909252828401869052600160609485018190526001600160a01b03891683526009825291839020855181559085015191810191909155908301516002820155908201516003820190611044908261233e565b506080820151600482015560a08201516005820190611063908261233e565b5060c0820151600682015560e0909101516007909101805460ff19169115159190911790556001600160a01b0383166000818152600a60209081526040808320859055848352600b825280832080546001600160a01b031916851790558051858152918201929092527f39c7a0be2574396927e6ea79689359d510f93baabccddecb840da959ef638965910160405180910390a290505b919050565b606061110a8261145d565b6000828152600660205260408120805461112390612247565b80601f016020809104026020016040519081016040528092919081815260200182805461114f90612247565b801561119c5780601f106111715761010080835404028352916020019161119c565b820191906000526020600020905b81548152906001019060200180831161117f57829003601f168201915b5050505050905060006111ba60408051602081019091526000815290565b905080516000036111cc575092915050565b8151156111fe5780826040516020016111e692919061252d565b60405160208183030381529060405292505050919050565b61120784611a23565b949350505050565b60096020526000908152604090208054600182015460028301546003840180549394929391929161123f90612247565b80601f016020809104026020016040519081016040528092919081815260200182805461126b90612247565b80156112b85780601f1061128d576101008083540402835291602001916112b8565b820191906000526020600020905b81548152906001019060200180831161129b57829003601f168201915b5050505050908060040154908060050180546112d390612247565b80601f01602080910402602001604051908101604052809291908181526020018280546112ff90612247565b801561134c5780601f106113215761010080835404028352916020019161134c565b820191906000526020600020905b81548152906001019060200180831161132f57829003601f168201915b50505050600683015460079093015491929160ff16905088565b6001600160a01b03918216600090815260056020908152604080832093909416825291909152205460ff1690565b61139c61185c565b6001600160a01b0381166114015760405162461bcd60e51b815260206004820152602660248201527f4f776e61626c653a206e6577206f776e657220697320746865207a65726f206160448201526564647265737360d01b60648201526084016105e1565b61140a816118b6565b50565b60006001600160e01b031982166380ac58cd60e01b148061143e57506001600160e01b03198216635b5e139f60e01b145b806104ae57506301ffc9a760e01b6001600160e01b03198316146104ae565b6000818152600260205260409020546001600160a01b031661140a5760405162461bcd60e51b8152602060048201526018602482015277115490cdcc8c4e881a5b9d985b1a59081d1bdad95b88125160421b60448201526064016105e1565b600081815260046020526040902080546001600160a01b0319166001600160a01b03841690811790915581906114f182610cf5565b6001600160a01b03167f8c5be1e5ebec7d5bd14f71427d1e84f3dd0314c0f7b2291e5b200ac8c7c3b92560405160405180910390a45050565b60606102ee8210611559575050604080518082019091526008815267506c6174696e756d60c01b602082015290565b61028a821061158257505060408051808201909152600481526311dbdb1960e21b602082015290565b6101f482106115ad57505060408051808201909152600681526529b4b63b32b960d11b602082015290565b505060408051808201909152600681526542726f6e7a6560d01b602082015290565b6000828152600260205260409020546001600160a01b031661164a5760405162461bcd60e51b815260206004820152602e60248201527f45524337323155524953746f726167653a2055524920736574206f66206e6f6e60448201526d32bc34b9ba32b73a103a37b5b2b760911b60648201526084016105e1565b6000828152600660205260409020611662828261233e565b506040518281527ff8e1a15aba9398e019f0b49df1a4fde98ee17ae345cb5f6b5e2c27f5033e8ce79060200160405180910390a15050565b6000806116a683610cf5565b9050806001600160a01b0316846001600160a01b031614806116cd57506116cd8185611366565b806112075750836001600160a01b03166116e684610546565b6001600160a01b031614949350505050565b826001600160a01b031661170b82610cf5565b6001600160a01b0316146117315760405162461bcd60e51b81526004016105e19061255c565b6001600160a01b0382166117935760405162461bcd60e51b8152602060048201526024808201527f4552433732313a207472616e7366657220746f20746865207a65726f206164646044820152637265737360e01b60648201526084016105e1565b826001600160a01b03166117a682610cf5565b6001600160a01b0316146117cc5760405162461bcd60e51b81526004016105e19061255c565b600081815260046020908152604080832080546001600160a01b03199081169091556001600160a01b0387811680865260038552838620805460001901905590871680865283862080546001019055868652600290945282852080549092168417909155905184937fddf252ad1be2c89b69c2b068fc378daa952ba7f163c4a11628f55a4df523b3ef91a4505050565b6007546001600160a01b03163314610ded5760405162461bcd60e51b815260206004820181905260248201527f4f776e61626c653a2063616c6c6572206973206e6f7420746865206f776e657260448201526064016105e1565b600780546001600160a01b038381166001600160a01b0319831681179093556040519116919082907f8be0079c531659141344cd1fd0a4f28419497f9722a3daafe3b4186f6b6457e090600090a35050565b816001600160a01b0316836001600160a01b0316036119695760405162461bcd60e51b815260206004820152601960248201527f4552433732313a20617070726f766520746f2063616c6c65720000000000000060448201526064016105e1565b6001600160a01b03838116600081815260056020908152604080832094871680845294825291829020805460ff191686151590811790915591519182527f17307eab39ab6107e8899845ad3d59bd9653f200f220920489ca2b5937696c31910160405180910390a3505050565b6119e18484846116f8565b6119ed84848484611a97565b610e695760405162461bcd60e51b81526004016105e1906125a1565b610e33828260405180602001604052806000815250611b98565b6060611a2e8261145d565b6000611a4560408051602081019091526000815290565b90506000815111611a655760405180602001604052806000815250611a90565b80611a6f84611bcb565b604051602001611a8092919061252d565b6040516020818303038152906040525b9392505050565b60006001600160a01b0384163b15611b8d57604051630a85bd0160e11b81526001600160a01b0385169063150b7a0290611adb9033908990889088906004016125f3565b6020604051808303816000875af1925050508015611b16575060408051601f3d908101601f19168201909252611b1391810190612630565b60015b611b73573d808015611b44576040519150601f19603f3d011682016040523d82523d6000602084013e611b49565b606091505b508051600003611b6b5760405162461bcd60e51b81526004016105e1906125a1565b805181602001fd5b6001600160e01b031916630a85bd0160e11b149050611207565b506001949350505050565b611ba28383611c5e565b611baf6000848484611a97565b6106825760405162461bcd60e51b81526004016105e1906125a1565b60606000611bd883611de9565b600101905060008167ffffffffffffffff811115611bf857611bf8611fcc565b6040519080825280601f01601f191660200182016040528015611c22576020820181803683370190505b5090508181016020015b600019016f181899199a1a9b1b9c1cb0b131b232b360811b600a86061a8153600a8504945084611c2c57509392505050565b6001600160a01b038216611cb45760405162461bcd60e51b815260206004820181905260248201527f4552433732313a206d696e7420746f20746865207a65726f206164647265737360448201526064016105e1565b6000818152600260205260409020546001600160a01b031615611d195760405162461bcd60e51b815260206004820152601c60248201527f4552433732313a20746f6b656e20616c7265616479206d696e7465640000000060448201526064016105e1565b6000818152600260205260409020546001600160a01b031615611d7e5760405162461bcd60e51b815260206004820152601c60248201527f4552433732313a20746f6b656e20616c7265616479206d696e7465640000000060448201526064016105e1565b6001600160a01b038216600081815260036020908152604080832080546001019055848352600290915280822080546001600160a01b0319168417905551839291907fddf252ad1be2c89b69c2b068fc378daa952ba7f163c4a11628f55a4df523b3ef908290a45050565b60008072184f03e93ff9f4daa797ed6e38ed64bf6a1f0160401b8310611e285772184f03e93ff9f4daa797ed6e38ed64bf6a1f0160401b830492506040015b6d04ee2d6d415b85acef81000000008310611e54576d04ee2d6d415b85acef8100000000830492506020015b662386f26fc100008310611e7257662386f26fc10000830492506010015b6305f5e1008310611e8a576305f5e100830492506008015b6127108310611e9e57612710830492506004015b60648310611eb0576064830492506002015b600a83106104ae5760010192915050565b6001600160e01b03198116811461140a57600080fd5b600060208284031215611ee957600080fd5b8135611a9081611ec1565b80356001600160a01b03811681146110fa57600080fd5b600060208284031215611f1d57600080fd5b611a9082611ef4565b60005b83811015611f41578181015183820152602001611f29565b50506000910152565b60008151808452611f62816020860160208601611f26565b601f01601f19169290920160200192915050565b602081526000611a906020830184611f4a565b600060208284031215611f9b57600080fd5b5035919050565b60008060408385031215611fb557600080fd5b611fbe83611ef4565b946020939093013593505050565b634e487b7160e01b600052604160045260246000fd5b600067ffffffffffffffff80841115611ffd57611ffd611fcc565b604051601f8501601f19908116603f0116810190828211818310171561202557612025611fcc565b8160405280935085815286868601111561203e57600080fd5b858560208301376000602087830101525050509392505050565b60008060006060848603121561206d57600080fd5b61207684611ef4565b925060208401359150604084013567ffffffffffffffff81111561209957600080fd5b8401601f810186136120aa57600080fd5b6120b986823560208401611fe2565b9150509250925092565b6000806000606084860312156120d857600080fd5b6120e184611ef4565b92506120ef60208501611ef4565b9150604084013590509250925092565b60006101008a835289602084015288604084015280606084015261212581840189611f4a565b905086608084015282810360a084015261213f8187611f4a565b60c0840195909552505090151560e0909101529695505050505050565b6000806040838503121561216f57600080fd5b61217883611ef4565b91506020830135801515811461218d57600080fd5b809150509250929050565b600080600080608085870312156121ae57600080fd5b6121b785611ef4565b93506121c560208601611ef4565b925060408501359150606085013567ffffffffffffffff8111156121e857600080fd5b8501601f810187136121f957600080fd5b61220887823560208401611fe2565b91505092959194509250565b6000806040838503121561222757600080fd5b61223083611ef4565b915061223e60208401611ef4565b90509250929050565b600181811c9082168061225b57607f821691505b60208210810361227b57634e487b7160e01b600052602260045260246000fd5b50919050565b634e487b7160e01b600052601160045260246000fd5b808201808211156104ae576104ae612281565b6000600160ff1b82016122bf576122bf612281565b5060000390565b818103818111156104ae576104ae612281565b80820281158282048414176104ae576104ae612281565b601f82111561068257600081815260208120601f850160051c810160208610156123175750805b601f850160051c820191505b8181101561233657828155600101612323565b505050505050565b815167ffffffffffffffff81111561235857612358611fcc565b61236c816123668454612247565b846122f0565b602080601f8311600181146123a157600084156123895750858301515b600019600386901b1c1916600185901b178555612336565b600085815260208120601f198616915b828110156123d0578886015182559484019460019091019084016123b1565b50858210156123ee5787850151600019600388901b60f8161c191681555b5050505050600190811b01905550565b66697066733a2f2f60c81b815260008251612420816007850160208701611f26565b9190910160070192915050565b838152600060208481840152606060408401526000845461244d81612247565b806060870152608060018084166000811461246f5760018114612489576124b7565b60ff1985168984015283151560051b8901830195506124b7565b896000528660002060005b858110156124af5781548b8201860152908301908801612494565b8a0184019650505b50939a9950505050505050505050565b6020808252602d908201527f4552433732313a2063616c6c6572206973206e6f7420746f6b656e206f776e6560408201526c1c881bdc88185c1c1c9bdd9959609a1b606082015260800190565b60006001820161252657612526612281565b5060010190565b6000835161253f818460208801611f26565b835190830190612553818360208801611f26565b01949350505050565b60208082526025908201527f4552433732313a207472616e736665722066726f6d20696e636f72726563742060408201526437bbb732b960d91b606082015260800190565b60208082526032908201527f4552433732313a207472616e7366657220746f206e6f6e20455243373231526560408201527131b2b4bb32b91034b6b83632b6b2b73a32b960711b606082015260800190565b6001600160a01b038581168252841660208201526040810183905260806060820181905260009061262690830184611f4a565b9695505050505050565b60006020828403121561264257600080fd5b8151611a9081611ec156fea2646970667358221220c6087c5857211f69f5149217552c708bd6dc312947a3a7da2674c4bddb99372464736f6c63430008140033",
  "linkReferences": {},
  "deployedLinkReferences": {}
}