{"src/CreditDelegation.sol":{"CreditDelegation":{"abi":[{"inputs":[{"internalType":"address","name":"initialOwner","type":"address"},{"internalType":"address","name":"_creditPassport","type":"address"}],"stateMutability":"nonpayable","type":"constructor"},{"anonymous":false,"inputs":[{"indexed":true,"internalType":"address","name":"delegator","type":"address"},{"indexed":true,"internalType":"address","name":"delegatee","type":"address"},{"indexed":false,"internalType":"uint256","name":"points","type":"uint256"}],"name":"DelegationCreated","type":"event"},{"anonymous":false,"inputs":[{"indexed":true,"internalType":"address","name":"delegator","type":"address"},{"indexed":true,"internalType":"address","name":"delegatee","type":"address"},{"indexed":false,"internalType":"uint256","name":"points","type":"uint256"},{"indexed":false,"internalType":"bool","name":"defaulted","type":"bool"}],"name":"DelegationRevoked","type":"event"},{"anonymous":false,"inputs":[{"indexed":true,"internalType":"address","name":"delegator","type":"address"},{"indexed":false,"internalType":"uint256","name":"pointsLost","type":"uint256"}],"name":"DelegationSlashed","type":"event"},{"anonymous":false,"inputs":[{"indexed":true,"internalType":"address","name":"previousOwner","type":"address"},{"indexed":true,"internalType":"address","name":"newOwner","type":"address"}],"name":"OwnershipTransferred","type":"event"},{"inputs":[],"name":"MAX_DELEGATION_PERCENT","outputs":[{"internalType":"uint256","name":"","type":"uint256"}],"stateMutability":"view","type":"function"},{"inputs":[],"name":"MIN_SCORE_TO_DELEGATE","outputs":[{"internalType":"uint256","name":"","type":"uint256"}],"stateMutability":"view","type":"function"},{"inputs":[],"name":"creditPassport","outputs":[{"internalType":"contract CreditPassport","name":"","type":"address"}],"stateMutability":"view","type":"function"},{"inputs":[{"internalType":"address","name":"delegatee","type":"address"},{"internalType":"uint256","name":"points","type":"uint256"}],"name":"delegate","outputs":[],"stateMutability":"nonpayable","type":"function"},{"inputs":[{"internalType":"address","name":"","type":"address"},{"internalType":"uint256","name":"","type":"uint256"}],"name":"delegateeDelegators","outputs":[{"internalType":"address","name":"","type":"address"}],"stateMutability":"view","type":"function"},{"inputs":[{"internalType":"address","name":"","type":"address"},{"internalType":"address","name":"","type":"address"}],"name":"delegations","outputs":[{"internalType":"address","name":"delegator","type":"address"},{"internalType":"address","name":"delegatee","type":"address"},{"internalType":"uint256","name":"points","type":"uint256"},{"internalType":"uint256","name":"timestamp","type":"uint256"},{"internalType":"bool","name":"isActive","type":"bool"}],"stateMutability":"view","type":"function"},{"inputs":[{"internalType":"address","name":"wallet","type":"address"}],"name":"getDelegatedPoints","outputs":[{"internalType":"uint256","name":"","type":"uint256"}],"stateMutability":"view","type":"function"},{"inputs":[{"internalType":"address","name":"delegator","type":"address"},{"internalType":"address","name":"delegatee","type":"address"}],"name":"getDelegation","outputs":[{"internalType":"uint256","name":"points","type":"uint256"},{"internalType":"uint256","name":"timestamp","type":"uint256"},{"internalType":"bool","name":"isActive","type":"bool"}],"stateMutability":"view","type":"function"},{"inputs":[{"internalType":"address","name":"wallet","type":"address"}],"name":"getEffectiveScore","outputs":[{"internalType":"uint256","name":"","type":"uint256"}],"stateMutability":"view","type":"function"},{"inputs":[],"name":"owner","outputs":[{"internalType":"address","name":"","type":"address"}],"stateMutability":"view","type":"function"},{"inputs":[],"name":"renounceOwnership","outputs":[],"stateMutability":"nonpayable","type":"function"},{"inputs":[{"internalType":"address","name":"delegatee","type":"address"}],"name":"revokeDelegation","outputs":[],"stateMutability":"nonpayable","type":"function"},{"inputs":[{"internalType":"address","name":"delegator","type":"address"},{"internalType":"address","name":"defaultedDelegatee","type":"address"}],"name":"slashDelegator","outputs":[],"stateMutability":"nonpayable","type":"function"},{"inputs":[{"internalType":"address","name":"","type":"address"}],"name":"totalDelegatedFrom","outputs":[{"internalType":"uint256","name":"","type":"uint256"}],"stateMutability":"view","type":"function"},{"inputs":[{"internalType":"address","name":"","type":"address"}],"name":"totalDelegatedTo","outputs":[{"internalType":"uint256","name":"","type":"uint256"}],"stateMutability":"view","type":"function"},{"inputs":[{"internalType":"address","name":"newOwner","type":"address"}],"name":"transferOwnership","outputs":[],"stateMutability":"nonpayable","type":"function"}],"evm":{"bytecode":{"linkReferences":{},"object":"60806040523480156200001157600080fd5b50604051620012d1380380620012d18339810160408190526200003491620000e9565b6200003f336200007c565b600180546001600160a01b0319166001600160a01b03838116919091179091553390831614620000745762000074826200007c565b505062000121565b600080546001600160a01b038381166001600160a01b0319831681178455604051919092169283917f8be0079c531659141344cd1fd0a4f28419497f9722a3daafe3b4186f6b6457e09190a35050565b80516001600160a01b0381168114620000e457600080fd5b919050565b60008060408385031215620000fd57600080fd5b6200010883620000cc565b91506200011860208401620000cc565b90509250929050565b6111a080620001316000396000f3fe608060405234801561001057600080fd5b50600436106101005760003560e01c80638da5cb5b11610097578063d7f9088911610066578063d7f908891461030f578063ee66ce031461032f578063f2fde38b14610358578063fbe81d361461036b57600080fd5b80638da5cb5b14610258578063a7fc4e4614610269578063c1bf1b9b14610272578063c64814dd1461028557600080fd5b806329aad6d8116100d357806329aad6d8146101fc5780634d8c819b1461021d578063715018a61461023d578063808d50141461024557600080fd5b8063026e402b1461010557806315049a5a1461011a57806321a49a5a146101be57806327da6831146101e9575b600080fd5b610118610113366004610ebb565b610373565b005b61019c610128366004610ee5565b6001600160a01b039182166000908152600260208181526040808420948616845293815291839020835160a08101855281548616815260018201549095169285019290925281015491830182905260038101546060840181905260049091015460ff16151560809093018390529092909190565b6040805193845260208401929092521515908201526060015b60405180910390f35b6001546101d1906001600160a01b031681565b6040516001600160a01b0390911681526020016101b5565b6101186101f7366004610ee5565b610917565b61020f61020a366004610f18565b610b2f565b6040519081526020016101b5565b61020f61022b366004610f18565b60046020526000908152604090205481565b610118610c04565b610118610253366004610f18565b610c18565b6000546001600160a01b03166101d1565b61020f6101f481565b6101d1610280366004610ebb565b610d44565b6102da610293366004610ee5565b60026020818152600093845260408085209091529183529120805460018201549282015460038301546004909301546001600160a01b039283169490921692909160ff1685565b604080516001600160a01b0396871681529590941660208601529284019190915260608301521515608082015260a0016101b5565b61020f61031d366004610f18565b60036020526000908152604090205481565b61020f61033d366004610f18565b6001600160a01b031660009081526003602052604090205490565b610118610366366004610f18565b610d7c565b61020f601e81565b336001600160a01b038316036103d05760405162461bcd60e51b815260206004820152601b60248201527f43616e6e6f742064656c656761746520746f20796f757273656c66000000000060448201526064015b60405180910390fd5b600081116104205760405162461bcd60e51b815260206004820152601d60248201527f4d7573742064656c656761746520706f73697469766520706f696e747300000060448201526064016103c7565b6001546040516315e9624f60e21b815233600482015260009182916001600160a01b03909116906357a5893c90602401600060405180830381865afa15801561046d573d6000803e3d6000fd5b505050506040513d6000823e601f3d908101601f191682016040526104959190810190610ff6565b97505050505050509150806105005760405162461bcd60e51b815260206004820152602b60248201527f596f75206d75737420686176652061204372656469742050617373706f72742060448201526a746f2064656c656761746560a81b60648201526084016103c7565b6101f48210156105655760405162461bcd60e51b815260206004820152602a60248201527f4372656469742073636f726520746f6f206c6f7720746f2064656c656761746560448201526920286d696e203530302960b01b60648201526084016103c7565b60006064610574601e856110ba565b61057e91906110d7565b33600090815260046020526040902054909150819061059e9086906110f9565b11156106065760405162461bcd60e51b815260206004820152603160248201527f45786365656473206d6178696d756d2064656c6567617461626c6520706f696e60448201527074732028333025206f662073636f72652960781b60648201526084016103c7565b61061261012c8461110c565b84111561066d5760405162461bcd60e51b815260206004820152602360248201527f43616e6e6f742064656c65676174652062656c6f77206d696e696d756d2073636044820152626f726560e81b60648201526084016103c7565b3360009081526002602090815260408083206001600160a01b038916845290915290206004015460ff1615610727573360009081526002602081815260408084206001600160a01b038a16855282528084209092015460039091529082208054919290916106dc90849061110c565b90915550503360008181526002602081815260408084206001600160a01b038b168552825280842090920154938352600490528120805490919061072190849061110c565b90915550505b6040805160a081018252338082526001600160a01b0388811660208085018281528587018b81524260608801908152600160808901818152600098895260028087528b8a20978a529686528a892099518a546001600160a01b0319908116918a16919091178b559451918a01805490951691909716179092555192860192909255905160038086019190915591516004909401805460ff19169415159490941790935590915290812080548692906107e09084906110f9565b909155505033600090815260046020526040812080548692906108049084906110f9565b9091555060009050805b6001600160a01b038716600090815260056020526040902054811015610890576001600160a01b038716600090815260056020526040902080543391908390811061085b5761085b61111f565b6000918252602090912001546001600160a01b03160361087e5760019150610890565b8061088881611135565b91505061080e565b50806108cf576001600160a01b03861660009081526005602090815260408220805460018101825590835291200180546001600160a01b031916331790555b6040518581526001600160a01b0387169033907ff30d5f04d8ccb1d731ec50addde98da813e2697f466b244e045210fc90af12969060200160405180910390a3505050505050565b61091f610df5565b6001600160a01b0380831660009081526002602090815260408083209385168352929052206004015460ff166109975760405162461bcd60e51b815260206004820152601d60248201527f4e6f206163746976652064656c65676174696f6e20746f20736c61736800000060448201526064016103c7565b6001600160a01b0382811660009081526002602081815260408084209486168452938152838320918201546004909201805460ff191690556003905291812080548392906109e690849061110c565b90915550506001600160a01b03831660009081526004602052604081208054839290610a1390849061110c565b90915550506001546001600160a01b0316630cc9ec5b84610a338461114e565b6040516001600160e01b031960e085901b1681526001600160a01b03909216600483015260248201526060604482015260006064820152608401600060405180830381600087803b158015610a8757600080fd5b505af1158015610a9b573d6000803e3d6000fd5b505060408051848152600160208201526001600160a01b038087169450871692507fc5602f8e3faa8e09905baa54e801f299fb3caaf7c8e21e63ac58db98a0999eda910160405180910390a3826001600160a01b03167fd7e1a9fa0bde799ec1903911bce0f511928ebe7b9fa8b4cea5697e2f4ebd263682604051610b2291815260200190565b60405180910390a2505050565b6001546040516315e9624f60e21b81526001600160a01b03838116600483015260009283928392909116906357a5893c90602401600060405180830381865afa158015610b80573d6000803e3d6000fd5b505050506040513d6000823e601f3d908101601f19168201604052610ba89190810190610ff6565b9750505050505050915080610bc1575060009392505050565b6001600160a01b03841660009081526003602052604081205490610be582856110f9565b90506103528111610bf65780610bfa565b6103525b9695505050505050565b610c0c610df5565b610c166000610e4f565b565b3360009081526002602090815260408083206001600160a01b038516845290915290206004015460ff16610c855760405162461bcd60e51b815260206004820152601460248201527327379030b1ba34bb32903232b632b3b0ba34b7b760611b60448201526064016103c7565b3360009081526002602081815260408084206001600160a01b03861685528252808420928301546004909301805460ff1916905560039091528220805491928392610cd190849061110c565b90915550503360009081526004602052604081208054839290610cf590849061110c565b909155505060408051828152600060208201526001600160a01b0384169133917fc5602f8e3faa8e09905baa54e801f299fb3caaf7c8e21e63ac58db98a0999eda910160405180910390a35050565b60056020528160005260406000208181548110610d6057600080fd5b6000918252602090912001546001600160a01b03169150829050565b610d84610df5565b6001600160a01b038116610de95760405162461bcd60e51b815260206004820152602660248201527f4f776e61626c653a206e6577206f776e657220697320746865207a65726f206160448201526564647265737360d01b60648201526084016103c7565b610df281610e4f565b50565b6000546001600160a01b03163314610c165760405162461bcd60e51b815260206004820181905260248201527f4f776e61626c653a2063616c6c6572206973206e6f7420746865206f776e657260448201526064016103c7565b600080546001600160a01b038381166001600160a01b0319831681178455604051919092169283917f8be0079c531659141344cd1fd0a4f28419497f9722a3daafe3b4186f6b6457e09190a35050565b80356001600160a01b0381168114610eb657600080fd5b919050565b60008060408385031215610ece57600080fd5b610ed783610e9f565b946020939093013593505050565b60008060408385031215610ef857600080fd5b610f0183610e9f565b9150610f0f60208401610e9f565b90509250929050565b600060208284031215610f2a57600080fd5b610f3382610e9f565b9392505050565b634e487b7160e01b600052604160045260246000fd5b600082601f830112610f6157600080fd5b815167ffffffffffffffff80821115610f7c57610f7c610f3a565b604051601f8301601f19908116603f01168101908282118183101715610fa457610fa4610f3a565b81604052838152602092508683858801011115610fc057600080fd5b600091505b83821015610fe25785820183015181830184015290820190610fc5565b600093810190920192909252949350505050565b600080600080600080600080610100898b03121561101357600080fd5b885197506020890151965060408901519550606089015167ffffffffffffffff8082111561104057600080fd5b61104c8c838d01610f50565b965060808b0151955060a08b015191508082111561106957600080fd5b506110768b828c01610f50565b93505060c0890151915060e0890151801515811461109357600080fd5b809150509295985092959890939650565b634e487b7160e01b600052601160045260246000fd5b80820281158282048414176110d1576110d16110a4565b92915050565b6000826110f457634e487b7160e01b600052601260045260246000fd5b500490565b808201808211156110d1576110d16110a4565b818103818111156110d1576110d16110a4565b634e487b7160e01b600052603260045260246000fd5b600060018201611147576111476110a4565b5060010190565b6000600160ff1b8201611163576111636110a4565b506000039056fea26469706673582212202bfc034c8e395c9d97eaf8e43e64bc3322ed6dfbb951ab479a2de0728394cb9664736f6c63430008140033","opcodes":"PUSH1 0x80 PUSH1 0x40 MSTORE CALLVALUE DUP1 ISZERO PUSH3 0x11 JUMPI PUSH1 0x0 DUP1 REVERT JUMPDEST POP PUSH1 0x40 MLOAD PUSH3 0x12D1 CODESIZE SUB DUP1 PUSH3 0x12D1 DUP4 CODECOPY DUP2 ADD PUSH1 0x40 DUP2 SWAP1 MSTORE PUSH3 0x34 SWAP2 PUSH3 0xE9 JUMP JUMPDEST PUSH3 0x3F CALLER PUSH3 0x7C JUMP JUMPDEST PUSH1 0x1 DUP1 SLOAD PUSH1 0x1 PUSH1 0x1 PUSH1 0xA0 SHL SUB NOT AND PUSH1 0x1 PUSH1 0x1 PUSH1 0xA0 SHL SUB DUP4 DUP2 AND SWAP2 SWAP1 SWAP2 OR SWAP1 SWAP2 SSTORE CALLER SWAP1 DUP4 AND EQ PUSH3 0x74 JUMPI PUSH3 0x74 DUP3 PUSH3 0x7C JUMP JUMPDEST POP POP PUSH3 0x121 JUMP JUMPDEST PUSH1 0x0 DUP1 SLOAD PUSH1 0x1 PUSH1 0x1 PUSH1 0xA0 SHL SUB DUP4 DUP2 AND PUSH1 0x1 PUSH1 0x1 PUSH1 0xA0 SHL SUB NOT DUP4 AND DUP2 OR DUP5 SSTORE PUSH1 0x40 MLOAD SWAP2 SWAP1 SWAP3 AND SWAP3 DUP4 SWAP2 PUSH32 0x8BE0079C531659141344CD1FD0A4F28419497F9722A3DAAFE3B4186F6B6457E0 SWAP2 SWAP1 LOG3 POP POP JUMP JUMPDEST DUP1 MLOAD PUSH1 0x1 PUSH1 0x1 PUSH1 0xA0 SHL SUB DUP2 AND DUP2 EQ PUSH3 0xE4 JUMPI PUSH1 0x0 DUP1 REVERT JUMPDEST SWAP2 SWAP1 POP JUMP JUMPDEST PUSH1 0x0 DUP1 PUSH1 0x40 DUP4 DUP6 SUB SLT ISZERO PUSH3 0xFD JUMPI PUSH1 0x0 DUP1 REVERT JUMPDEST PUSH3 0x108 DUP4 PUSH3 0xCC JUMP JUMPDEST SWAP2 POP PUSH3 0x118 PUSH1 0x20 DUP5 ADD PUSH3 0xCC JUMP JUMPDEST SWAP1 POP SWAP3 POP SWAP3 SWAP1 POP JUMP JUMPDEST PUSH2 0x11A0 DUP1 PUSH3 0x131 PUSH1 0x0 CODECOPY PUSH1 0x0 RETURN INVALID PUSH1 0x80 PUSH1 0x40 MSTORE CALLVALUE DUP1 ISZERO PUSH2 0x10 JUMPI PUSH1 0x0 DUP1 REVERT JUMPDEST POP PUSH1 0x4 CALLDATASIZE LT PUSH2 0x100 JUMPI PUSH1 0x0 CALLDATALOAD PUSH1 0xE0 SHR DUP1 PUSH4 0x8DA5CB5B GT PUSH2 0x97 JUMPI DUP1 PUSH4 0xD7F90889 GT PUSH2 0x66 JUMPI DUP1 PUSH4 0xD7F90889 EQ PUSH2 0x30F JUMPI DUP1 PUSH4 0xEE66CE03 EQ PUSH2 0x32F JUMPI DUP1 PUSH4 0xF2FDE38B EQ PUSH2 0x358 JUMPI DUP1 PUSH4 0xFBE81D36 EQ PUSH2 0x36B JUMPI PUSH1 0x0 DUP1 REVERT JUMPDEST DUP1 PUSH4 0x8DA5CB5B EQ PUSH2 0x258 JUMPI DUP1 PUSH4 0xA7FC4E46 EQ PUSH2 0x269 JUMPI DUP1 PUSH4 0xC1BF1B9B EQ PUSH2 0x272 JUMPI DUP1 PUSH4 0xC64814DD EQ PUSH2 0x285 JUMPI PUSH1 0x0 DUP1 REVERT JUMPDEST DUP1 PUSH4 0x29AAD6D8 GT PUSH2 0xD3 JUMPI DUP1 PUSH4 0x29AAD6D8 EQ PUSH2 0x1FC JUMPI DUP1 PUSH4 0x4D8C819B EQ PUSH2 0x21D JUMPI DUP1 PUSH4 0x715018A6 EQ PUSH2 0x23D JUMPI DUP1 PUSH4 0x808D5014 EQ PUSH2 0x245 JUMPI PUSH1 0x0 DUP1 REVERT JUMPDEST DUP1 PUSH4 0x26E402B EQ PUSH2 0x105 JUMPI DUP1 PUSH4 0x15049A5A EQ PUSH2 0x11A JUMPI DUP1 PUSH4 0x21A49A5A EQ PUSH2 0x1BE JUMPI DUP1 PUSH4 0x27DA6831 EQ PUSH2 0x1E9 JUMPI JUMPDEST PUSH1 0x0 DUP1 REVERT JUMPDEST PUSH2 0x118 PUSH2 0x113 CALLDATASIZE PUSH1 0x4 PUSH2 0xEBB JUMP JUMPDEST PUSH2 0x373 JUMP JUMPDEST STOP JUMPDEST PUSH2 0x19C PUSH2 0x128 CALLDATASIZE PUSH1 0x4 PUSH2 0xEE5 JUMP JUMPDEST PUSH1 0x1 PUSH1 0x1 PUSH1 0xA0 SHL SUB SWAP2 DUP3 AND PUSH1 0x0 SWAP1 DUP2 MSTORE PUSH1 0x2 PUSH1 0x20 DUP2 DUP2 MSTORE PUSH1 0x40 DUP1 DUP5 KECCAK256 SWAP5 DUP7 AND DUP5 MSTORE SWAP4 DUP2 MSTORE SWAP2 DUP4 SWAP1 KECCAK256 DUP4 MLOAD PUSH1 0xA0 DUP2 ADD DUP6 MSTORE DUP2 SLOAD DUP7 AND DUP2 MSTORE PUSH1 0x1 DUP3 ADD SLOAD SWAP1 SWAP6 AND SWAP3 DUP6 ADD SWAP3 SWAP1 SWAP3 MSTORE DUP2 ADD SLOAD SWAP2 DUP4 ADD DUP3 SWAP1 MSTORE PUSH1 0x3 DUP2 ADD SLOAD PUSH1 0x60 DUP5 ADD DUP2 SWAP1 MSTORE PUSH1 0x4 SWAP1 SWAP2 ADD SLOAD PUSH1 0xFF AND ISZERO ISZERO PUSH1 0x80 SWAP1 SWAP4 ADD DUP4 SWAP1 MSTORE SWAP1 SWAP3 SWAP1 SWAP2 SWAP1 JUMP JUMPDEST PUSH1 0x40 DUP1 MLOAD SWAP4 DUP5 MSTORE PUSH1 0x20 DUP5 ADD SWAP3 SWAP1 SWAP3 MSTORE ISZERO ISZERO SWAP1 DUP3 ADD MSTORE PUSH1 0x60 ADD JUMPDEST PUSH1 0x40 MLOAD DUP1 SWAP2 SUB SWAP1 RETURN JUMPDEST PUSH1 0x1 SLOAD PUSH2 0x1D1 SWAP1 PUSH1 0x1 PUSH1 0x1 PUSH1 0xA0 SHL SUB AND DUP2 JUMP JUMPDEST PUSH1 0x40 MLOAD PUSH1 0x1 PUSH1 0x1 PUSH1 0xA0 SHL SUB SWAP1 SWAP2 AND DUP2 MSTORE PUSH1 0x20 ADD PUSH2 0x1B5 JUMP JUMPDEST PUSH2 0x118 PUSH2 0x1F7 CALLDATASIZE PUSH1 0x4 PUSH2 0xEE5 JUMP JUMPDEST PUSH2 0x917 JUMP JUMPDEST PUSH2 0x20F PUSH2 0x20A CALLDATASIZE PUSH1 0x4 PUSH2 0xF18 JUMP JUMPDEST PUSH2 0xB2F JUMP JUMPDEST PUSH1 0x40 MLOAD SWAP1 DUP2 MSTORE PUSH1 0x20 ADD PUSH2 0x1B5 JUMP JUMPDEST PUSH2 0x20F PUSH2 0x22B CALLDATASIZE PUSH1 0x4 PUSH2 0xF18 JUMP JUMPDEST PUSH1 0x4 PUSH1 0x20 MSTORE PUSH1 0x0 SWAP1 DUP2 MSTORE PUSH1 0x40 SWAP1 KECCAK256 SLOAD DUP2 JUMP JUMPDEST PUSH2 0x118 PUSH2 0xC04 JUMP JUMPDEST PUSH2 0x118 PUSH2 0x253 CALLDATASIZE PUSH1 0x4 PUSH2 0xF18 JUMP JUMPDEST PUSH2 0xC18 JUMP JUMPDEST PUSH1 0x0 SLOAD PUSH1 0x1 PUSH1 0x1 PUSH1 0xA0 SHL SUB AND PUSH2 0x1D1 JUMP JUMPDEST PUSH2 0x20F PUSH2 0x1F4 DUP2 JUMP JUMPDEST PUSH2 0x1D1 PUSH2 0x280 CALLDATASIZE PUSH1 0x4 PUSH2 0xEBB JUMP JUMPDEST PUSH2 0xD44 JUMP JUMPDEST PUSH2 0x2DA PUSH2 0x293 CALLDATASIZE PUSH1 0x4 PUSH2 0xEE5 JUMP JUMPDEST PUSH1 0x2 PUSH1 0x20 DUP2 DUP2 MSTORE PUSH1 0x0 SWAP4 DUP5 MSTORE PUSH1 0x40 DUP1 DUP6 KECCAK256 SWAP1 SWAP2 MSTORE SWAP2 DUP4 MSTORE SWAP2 KECCAK256 DUP1 SLOAD PUSH1 0x1 DUP3 ADD SLOAD SWAP3 DUP3 ADD SLOAD PUSH1 0x3 DUP4 ADD SLOAD PUSH1 0x4 SWAP1 SWAP4 ADD SLOAD PUSH1 0x1 PUSH1 0x1 PUSH1 0xA0 SHL SUB SWAP3 DUP4 AND SWAP5 SWAP1 SWAP3 AND SWAP3 SWAP1 SWAP2 PUSH1 0xFF AND DUP6 JUMP JUMPDEST PUSH1 0x40 DUP1 MLOAD PUSH1 0x1 PUSH1 0x1 PUSH1 0xA0 SHL SUB SWAP7 DUP8 AND DUP2 MSTORE SWAP6 SWAP1 SWAP5 AND PUSH1 0x20 DUP7 ADD MSTORE SWAP3 DUP5 ADD SWAP2 SWAP1 SWAP2 MSTORE PUSH1 0x60 DUP4 ADD MSTORE ISZERO ISZERO PUSH1 0x80 DUP3 ADD MSTORE PUSH1 0xA0 ADD PUSH2 0x1B5 JUMP JUMPDEST PUSH2 0x20F PUSH2 0x31D CALLDATASIZE PUSH1 0x4 PUSH2 0xF18 JUMP JUMPDEST PUSH1 0x3 PUSH1 0x20 MSTORE PUSH1 0x0 SWAP1 DUP2 MSTORE PUSH1 0x40 SWAP1 KECCAK256 SLOAD DUP2 JUMP JUMPDEST PUSH2 0x20F PUSH2 0x33D CALLDATASIZE PUSH1 0x4 PUSH2 0xF18 JUMP JUMPDEST PUSH1 0x1 PUSH1 0x1 PUSH1 0xA0 SHL SUB AND PUSH1 0x0 SWAP1 DUP2 MSTORE PUSH1 0x3 PUSH1 0x20 MSTORE PUSH1 0x40 SWAP1 KECCAK256 SLOAD SWAP1 JUMP JUMPDEST PUSH2 0x118 PUSH2 0x366 CALLDATASIZE PUSH1 0x4 PUSH2 0xF18 JUMP JUMPDEST PUSH2 0xD7C JUMP JUMPDEST PUSH2 0x20F PUSH1 0x1E DUP2 JUMP JUMPDEST CALLER PUSH1 0x1 PUSH1 0x1 PUSH1 0xA0 SHL SUB DUP4 AND SUB PUSH2 0x3D0 JUMPI PUSH1 0x40 MLOAD PUSH3 0x461BCD PUSH1 0xE5 SHL DUP2 MSTORE PUSH1 0x20 PUSH1 0x4 DUP3 ADD MSTORE PUSH1 0x1B PUSH1 0x24 DUP3 ADD MSTORE PUSH32 0x43616E6E6F742064656C656761746520746F20796F757273656C660000000000 PUSH1 0x44 DUP3 ADD MSTORE PUSH1 0x64 ADD JUMPDEST PUSH1 0x40 MLOAD DUP1 SWAP2 SUB SWAP1 REVERT JUMPDEST PUSH1 0x0 DUP2 GT PUSH2 0x420 JUMPI PUSH1 0x40 MLOAD PUSH3 0x461BCD PUSH1 0xE5 SHL DUP2 MSTORE PUSH1 0x20 PUSH1 0x4 DUP3 ADD MSTORE PUSH1 0x1D PUSH1 0x24 DUP3 ADD MSTORE PUSH32 0x4D7573742064656C656761746520706F73697469766520706F696E7473000000 PUSH1 0x44 DUP3 ADD MSTORE PUSH1 0x64 ADD PUSH2 0x3C7 JUMP JUMPDEST PUSH1 0x1 SLOAD PUSH1 0x40 MLOAD PUSH4 0x15E9624F PUSH1 0xE2 SHL DUP2 MSTORE CALLER PUSH1 0x4 DUP3 ADD MSTORE PUSH1 0x0 SWAP2 DUP3 SWAP2 PUSH1 0x1 PUSH1 0x1 PUSH1 0xA0 SHL SUB SWAP1 SWAP2 AND SWAP1 PUSH4 0x57A5893C SWAP1 PUSH1 0x24 ADD PUSH1 0x0 PUSH1 0x40 MLOAD DUP1 DUP4 SUB DUP2 DUP7 GAS STATICCALL ISZERO DUP1 ISZERO PUSH2 0x46D JUMPI RETURNDATASIZE PUSH1 0x0 DUP1 RETURNDATACOPY RETURNDATASIZE PUSH1 0x0 REVERT JUMPDEST POP POP POP POP PUSH1 0x40 MLOAD RETURNDATASIZE PUSH1 0x0 DUP3 RETURNDATACOPY PUSH1 0x1F RETURNDATASIZE SWAP1 DUP2 ADD PUSH1 0x1F NOT AND DUP3 ADD PUSH1 0x40 MSTORE PUSH2 0x495 SWAP2 SWAP1 DUP2 ADD SWAP1 PUSH2 0xFF6 JUMP JUMPDEST SWAP8 POP POP POP POP POP POP POP SWAP2 POP DUP1 PUSH2 0x500 JUMPI PUSH1 0x40 MLOAD PUSH3 0x461BCD PUSH1 0xE5 SHL DUP2 MSTORE PUSH1 0x20 PUSH1 0x4 DUP3 ADD MSTORE PUSH1 0x2B PUSH1 0x24 DUP3 ADD MSTORE PUSH32 0x596F75206D75737420686176652061204372656469742050617373706F727420 PUSH1 0x44 DUP3 ADD MSTORE PUSH11 0x746F2064656C6567617465 PUSH1 0xA8 SHL PUSH1 0x64 DUP3 ADD MSTORE PUSH1 0x84 ADD PUSH2 0x3C7 JUMP JUMPDEST PUSH2 0x1F4 DUP3 LT ISZERO PUSH2 0x565 JUMPI PUSH1 0x40 MLOAD PUSH3 0x461BCD PUSH1 0xE5 SHL DUP2 MSTORE PUSH1 0x20 PUSH1 0x4 DUP3 ADD MSTORE PUSH1 0x2A PUSH1 0x24 DUP3 ADD MSTORE PUSH32 0x4372656469742073636F726520746F6F206C6F7720746F2064656C6567617465 PUSH1 0x44 DUP3 ADD MSTORE PUSH10 0x20286D696E2035303029 PUSH1 0xB0 SHL PUSH1 0x64 DUP3 ADD MSTORE PUSH1 0x84 ADD PUSH2 0x3C7 JUMP JUMPDEST PUSH1 0x0 PUSH1 0x64 PUSH2 0x574 PUSH1 0x1E DUP6 PUSH2 0x10BA JUMP JUMPDEST PUSH2 0x57E SWAP2 SWAP1 PUSH2 0x10D7 JUMP JUMPDEST CALLER PUSH1 0x0 SWAP1 DUP2 MSTORE PUSH1 0x4 PUSH1 0x20 MSTORE PUSH1 0x40 SWAP1 KECCAK256 SLOAD SWAP1 SWAP2 POP DUP2 SWAP1 PUSH2 0x59E SWAP1 DUP7 SWAP1 PUSH2 0x10F9 JUMP JUMPDEST GT ISZERO PUSH2 0x606 JUMPI PUSH1 0x40 MLOAD PUSH3 0x461BCD PUSH1 0xE5 SHL DUP2 MSTORE PUSH1 0x20 PUSH1 0x4 DUP3 ADD MSTORE PUSH1 0x31 PUSH1 0x24 DUP3 ADD MSTORE PUSH32 0x45786365656473206D6178696D756D2064656C6567617461626C6520706F696E PUSH1 0x44 DUP3 ADD MSTORE PUSH17 0x74732028333025206F662073636F726529 PUSH1 0x78 SHL PUSH1 0x64 DUP3 ADD MSTORE PUSH1 0x84 ADD PUSH2 0x3C7 JUMP JUMPDEST PUSH2 0x612 PUSH2 0x12C DUP5 PUSH2 0x110C JUMP JUMPDEST DUP5 GT ISZERO PUSH2 0x66D JUMPI PUSH1 0x40 MLOAD PUSH3 0x461BCD PUSH1 0xE5 SHL DUP2 MSTORE PUSH1 0x20 PUSH1 0x4 DUP3 ADD MSTORE PUSH1 0x23 PUSH1 0x24 DUP3 ADD MSTORE PUSH32 0x43616E6E6F742064656C65676174652062656C6F77206D696E696D756D207363 PUSH1 0x44 DUP3 ADD MSTORE PUSH3 0x6F7265 PUSH1 0xE8 SHL PUSH1 0x64 DUP3 ADD MSTORE PUSH1 0x84 ADD PUSH2 0x3C7 JUMP JUMPDEST CALLER PUSH1 0x0 SWAP1 DUP2 MSTORE PUSH1 0x2 PUSH1 0x20 SWAP1 DUP2 MSTORE PUSH1 0x40 DUP1 DUP4 KECCAK256 PUSH1 0x1 PUSH1 0x1 PUSH1 0xA0 SHL SUB DUP10 AND DUP5 MSTORE SWAP1 SWAP2 MSTORE SWAP1 KECCAK256 PUSH1 0x4 ADD SLOAD PUSH1 0xFF AND ISZERO PUSH2 0x727 JUMPI CALLER PUSH1 0x0 SWAP1 DUP2 MSTORE PUSH1 0x2 PUSH1 0x20 DUP2 DUP2 MSTORE PUSH1 0x40 DUP1 DUP5 KECCAK256 PUSH1 0x1 PUSH1 0x1 PUSH1 0xA0 SHL SUB DUP11 AND DUP6 MSTORE DUP3 MSTORE DUP1 DUP5 KECCAK256 SWAP1 SWAP3 ADD SLOAD PUSH1 0x3 SWAP1 SWAP2 MSTORE SWAP1 DUP3 KECCAK256 DUP1 SLOAD SWAP2 SWAP3 SWAP1 SWAP2 PUSH2 0x6DC SWAP1 DUP5 SWAP1 PUSH2 0x110C JUMP JUMPDEST SWAP1 SWAP2 SSTORE POP POP CALLER PUSH1 0x0 DUP2 DUP2 MSTORE PUSH1 0x2 PUSH1 0x20 DUP2 DUP2 MSTORE PUSH1 0x40 DUP1 DUP5 KECCAK256 PUSH1 0x1 PUSH1 0x1 PUSH1 0xA0 SHL SUB DUP12 AND DUP6 MSTORE DUP3 MSTORE DUP1 DUP5 KECCAK256 SWAP1 SWAP3 ADD SLOAD SWAP4 DUP4 MSTORE PUSH1 0x4 SWAP1 MSTORE DUP2 KECCAK256 DUP1 SLOAD SWAP1 SWAP2 SWAP1 PUSH2 0x721 SWAP1 DUP5 SWAP1 PUSH2 0x110C JUMP JUMPDEST SWAP1 SWAP2 SSTORE POP POP JUMPDEST PUSH1 0x40 DUP1 MLOAD PUSH1 0xA0 DUP2 ADD DUP3 MSTORE CALLER DUP1 DUP3 MSTORE PUSH1 0x1 PUSH1 0x1 PUSH1 0xA0 SHL SUB DUP9 DUP2 AND PUSH1 0x20 DUP1 DUP6 ADD DUP3 DUP2 MSTORE DUP6 DUP8 ADD DUP12 DUP2 MSTORE TIMESTAMP PUSH1 0x60 DUP9 ADD SWAP1 DUP2 MSTORE PUSH1 0x1 PUSH1 0x80 DUP10 ADD DUP2 DUP2 MSTORE PUSH1 0x0 SWAP9 DUP10 MSTORE PUSH1 0x2 DUP1 DUP8 MSTORE DUP12 DUP11 KECCAK256 SWAP8 DUP11 MSTORE SWAP7 DUP7 MSTORE DUP11 DUP10 KECCAK256 SWAP10 MLOAD DUP11 SLOAD PUSH1 0x1 PUSH1 0x1 PUSH1 0xA0 SHL SUB NOT SWAP1 DUP2 AND SWAP2 DUP11 AND SWAP2 SWAP1 SWAP2 OR DUP12 SSTORE SWAP5 MLOAD SWAP2 DUP11 ADD DUP1 SLOAD SWAP1 SWAP6 AND SWAP2 SWAP1 SWAP8 AND OR SWAP1 SWAP3 SSTORE MLOAD SWAP3 DUP7 ADD SWAP3 SWAP1 SWAP3 SSTORE SWAP1 MLOAD PUSH1 0x3 DUP1 DUP7 ADD SWAP2 SWAP1 SWAP2 SSTORE SWAP2 MLOAD PUSH1 0x4 SWAP1 SWAP5 ADD DUP1 SLOAD PUSH1 0xFF NOT AND SWAP5 ISZERO ISZERO SWAP5 SWAP1 SWAP5 OR SWAP1 SWAP4 SSTORE SWAP1 SWAP2 MSTORE SWAP1 DUP2 KECCAK256 DUP1 SLOAD DUP7 SWAP3 SWAP1 PUSH2 0x7E0 SWAP1 DUP5 SWAP1 PUSH2 0x10F9 JUMP JUMPDEST SWAP1 SWAP2 SSTORE POP POP CALLER PUSH1 0x0 SWAP1 DUP2 MSTORE PUSH1 0x4 PUSH1 0x20 MSTORE PUSH1 0x40 DUP2 KECCAK256 DUP1 SLOAD DUP7 SWAP3 SWAP1 PUSH2 0x804 SWAP1 DUP5 SWAP1 PUSH2 0x10F9 JUMP JUMPDEST SWAP1 SWAP2 SSTORE POP PUSH1 0x0 SWAP1 POP DUP1 JUMPDEST PUSH1 0x1 PUSH1 0x1 PUSH1 0xA0 SHL SUB DUP8 AND PUSH1 0x0 SWAP1 DUP2 MSTORE PUSH1 0x5 PUSH1 0x20 MSTORE PUSH1 0x40 SWAP1 KECCAK256 SLOAD DUP2 LT ISZERO PUSH2 0x890 JUMPI PUSH1 0x1 PUSH1 0x1 PUSH1 0xA0 SHL SUB DUP8 AND PUSH1 0x0 SWAP1 DUP2 MSTORE PUSH1 0x5 PUSH1 0x20 MSTORE PUSH1 0x40 SWAP1 KECCAK256 DUP1 SLOAD CALLER SWAP2 SWAP1 DUP4 SWAP1 DUP2 LT PUSH2 0x85B JUMPI PUSH2 0x85B PUSH2 0x111F JUMP JUMPDEST PUSH1 0x0 SWAP2 DUP3 MSTORE PUSH1 0x20 SWAP1 SWAP2 KECCAK256 ADD SLOAD PUSH1 0x1 PUSH1 0x1 PUSH1 0xA0 SHL SUB AND SUB PUSH2 0x87E JUMPI PUSH1 0x1 SWAP2 POP PUSH2 0x890 JUMP JUMPDEST DUP1 PUSH2 0x888 DUP2 PUSH2 0x1135 JUMP JUMPDEST SWAP2 POP POP PUSH2 0x80E JUMP JUMPDEST POP DUP1 PUSH2 0x8CF JUMPI PUSH1 0x1 PUSH1 0x1 PUSH1 0xA0 SHL SUB DUP7 AND PUSH1 0x0 SWAP1 DUP2 MSTORE PUSH1 0x5 PUSH1 0x20 SWAP1 DUP2 MSTORE PUSH1 0x40 DUP3 KECCAK256 DUP1 SLOAD PUSH1 0x1 DUP2 ADD DUP3 SSTORE SWAP1 DUP4 MSTORE SWAP2 KECCAK256 ADD DUP1 SLOAD PUSH1 0x1 PUSH1 0x1 PUSH1 0xA0 SHL SUB NOT AND CALLER OR SWAP1 SSTORE JUMPDEST PUSH1 0x40 MLOAD DUP6 DUP2 MSTORE PUSH1 0x1 PUSH1 0x1 PUSH1 0xA0 SHL SUB DUP8 AND SWAP1 CALLER SWAP1 PUSH32 0xF30D5F04D8CCB1D731EC50ADDDE98DA813E2697F466B244E045210FC90AF1296 SWAP1 PUSH1 0x20 ADD PUSH1 0x40 MLOAD DUP1 SWAP2 SUB SWAP1 LOG3 POP POP POP POP POP POP JUMP JUMPDEST PUSH2 0x91F PUSH2 0xDF5 JUMP JUMPDEST PUSH1 0x1 PUSH1 0x1 PUSH1 0xA0 SHL SUB DUP1 DUP4 AND PUSH1 0x0 SWAP1 DUP2 MSTORE PUSH1 0x2 PUSH1 0x20 SWAP1 DUP2 MSTORE PUSH1 0x40 DUP1 DUP4 KECCAK256 SWAP4 DUP6 AND DUP4 MSTORE SWAP3 SWAP1 MSTORE KECCAK256 PUSH1 0x4 ADD SLOAD PUSH1 0xFF AND PUSH2 0x997 JUMPI PUSH1 0x40 MLOAD PUSH3 0x461BCD PUSH1 0xE5 SHL DUP2 MSTORE PUSH1 0x20 PUSH1 0x4 DUP3 ADD MSTORE PUSH1 0x1D PUSH1 0x24 DUP3 ADD MSTORE PUSH32 0x4E6F206163746976652064656C65676174696F6E20746F20736C617368000000 PUSH1 0x44 DUP3 ADD MSTORE PUSH1 0x64 ADD PUSH2 0x3C7 JUMP JUMPDEST PUSH1 0x1 PUSH1 0x1 PUSH1 0xA0 SHL SUB DUP3 DUP2 AND PUSH1 0x0 SWAP1 DUP2 MSTORE PUSH1 0x2 PUSH1 0x20 DUP2 DUP2 MSTORE PUSH1 0x40 DUP1 DUP5 KECCAK256 SWAP5 DUP7 AND DUP5 MSTORE SWAP4 DUP2 MSTORE DUP4 DUP4 KECCAK256 SWAP2 DUP3 ADD SLOAD PUSH1 0x4 SWAP1 SWAP3 ADD DUP1 SLOAD PUSH1 0xFF NOT AND SWAP1 SSTORE PUSH1 0x3 SWAP1 MSTORE SWAP2 DUP2 KECCAK256 DUP1 SLOAD DUP4 SWAP3 SWAP1 PUSH2 0x9E6 SWAP1 DUP5 SWAP1 PUSH2 0x110C JUMP JUMPDEST SWAP1 SWAP2 SSTORE POP POP PUSH1 0x1 PUSH1 0x1 PUSH1 0xA0 SHL SUB DUP4 AND PUSH1 0x0 SWAP1 DUP2 MSTORE PUSH1 0x4 PUSH1 0x20 MSTORE PUSH1 0x40 DUP2 KECCAK256 DUP1 SLOAD DUP4 SWAP3 SWAP1 PUSH2 0xA13 SWAP1 DUP5 SWAP1 PUSH2 0x110C JUMP JUMPDEST SWAP1 SWAP2 SSTORE POP POP PUSH1 0x1 SLOAD PUSH1 0x1 PUSH1 0x1 PUSH1 0xA0 SHL SUB AND PUSH4 0xCC9EC5B DUP5 PUSH2 0xA33 DUP5 PUSH2 0x114E JUMP JUMPDEST PUSH1 0x40 MLOAD PUSH1 0x1 PUSH1 0x1 PUSH1 0xE0 SHL SUB NOT PUSH1 0xE0 DUP6 SWAP1 SHL AND DUP2 MSTORE PUSH1 0x1 PUSH1 0x1 PUSH1 0xA0 SHL SUB SWAP1 SWAP3 AND PUSH1 0x4 DUP4 ADD MSTORE PUSH1 0x24 DUP3 ADD MSTORE PUSH1 0x60 PUSH1 0x44 DUP3 ADD MSTORE PUSH1 0x0 PUSH1 0x64 DUP3 ADD MSTORE PUSH1 0x84 ADD PUSH1 0x0 PUSH1 0x40 MLOAD DUP1 DUP4 SUB DUP2 PUSH1 0x0 DUP8 DUP1 EXTCODESIZE ISZERO DUP1 ISZERO PUSH2 0xA87 JUMPI PUSH1 0x0 DUP1 REVERT JUMPDEST POP GAS CALL ISZERO DUP1 ISZERO PUSH2 0xA9B JUMPI RETURNDATASIZE PUSH1 0x0 DUP1 RETURNDATACOPY RETURNDATASIZE PUSH1 0x0 REVERT JUMPDEST POP POP PUSH1 0x40 DUP1 MLOAD DUP5 DUP2 MSTORE PUSH1 0x1 PUSH1 0x20 DUP3 ADD MSTORE PUSH1 0x1 PUSH1 0x1 PUSH1 0xA0 SHL SUB DUP1 DUP8 AND SWAP5 POP DUP8 AND SWAP3 POP PUSH32 0xC5602F8E3FAA8E09905BAA54E801F299FB3CAAF7C8E21E63AC58DB98A0999EDA SWAP2 ADD PUSH1 0x40 MLOAD DUP1 SWAP2 SUB SWAP1 LOG3 DUP3 PUSH1 0x1 PUSH1 0x1 PUSH1 0xA0 SHL SUB AND PUSH32 0xD7E1A9FA0BDE799EC1903911BCE0F511928EBE7B9FA8B4CEA5697E2F4EBD2636 DUP3 PUSH1 0x40 MLOAD PUSH2 0xB22 SWAP2 DUP2 MSTORE PUSH1 0x20 ADD SWAP1 JUMP JUMPDEST PUSH1 0x40 MLOAD DUP1 SWAP2 SUB SWAP1 LOG2 POP POP POP JUMP JUMPDEST PUSH1 0x1 SLOAD PUSH1 0x40 MLOAD PUSH4 0x15E9624F PUSH1 0xE2 SHL DUP2 MSTORE PUSH1 0x1 PUSH1 0x1 PUSH1 0xA0 SHL SUB DUP4 DUP2 AND PUSH1 0x4 DUP4 ADD MSTORE PUSH1 0x0 SWAP3 DUP4 SWAP3 DUP4 SWAP3 SWAP1 SWAP2 AND SWAP1 PUSH4 0x57A5893C SWAP1 PUSH1 0x24 ADD PUSH1 0x0 PUSH1 0x40 MLOAD DUP1 DUP4 SUB DUP2 DUP7 GAS STATICCALL ISZERO DUP1 ISZERO PUSH2 0xB80 JUMPI RETURNDATASIZE PUSH1 0x0 DUP1 RETURNDATACOPY RETURNDATASIZE PUSH1 0x0 REVERT JUMPDEST POP POP POP POP PUSH1 0x40 MLOAD RETURNDATASIZE PUSH1 0x0 DUP3 RETURNDATACOPY PUSH1 0x1F RETURNDATASIZE SWAP1 DUP2 ADD PUSH1 0x1F NOT AND DUP3 ADD PUSH1 0x40 MSTORE PUSH2 0xBA8 SWAP2 SWAP1 DUP2 ADD SWAP1 PUSH2 0xFF6 JUMP JUMPDEST SWAP8 POP POP POP POP POP POP POP SWAP2 POP DUP1 PUSH2 0xBC1 JUMPI POP PUSH1 0x0 SWAP4 SWAP3 POP POP POP JUMP JUMPDEST PUSH1 0x1 PUSH1 0x1 PUSH1 0xA0 SHL SUB DUP5 AND PUSH1 0x0 SWAP1 DUP2 MSTORE PUSH1 0x3 PUSH1 0x20 MSTORE PUSH1 0x40 DUP2 KECCAK256 SLOAD SWAP1 PUSH2 0xBE5 DUP3 DUP6 PUSH2 0x10F9 JUMP JUMPDEST SWAP1 POP PUSH2 0x352 DUP2 GT PUSH2 0xBF6 JUMPI DUP1 PUSH2 0xBFA JUMP JUMPDEST PUSH2 0x352 JUMPDEST SWAP7 SWAP6 POP POP POP POP POP POP JUMP JUMPDEST PUSH2 0xC0C PUSH2 0xDF5 JUMP JUMPDEST PUSH2 0xC16 PUSH1 0x0 PUSH2 0xE4F JUMP JUMPDEST JUMP JUMPDEST CALLER PUSH1 0x0 SWAP1 DUP2 MSTORE PUSH1 0x2 PUSH1 0x20 SWAP1 DUP2 MSTORE PUSH1 0x40 DUP1 DUP4 KECCAK256 PUSH1 0x1 PUSH1 0x1 PUSH1 0xA0 SHL SUB DUP6 AND DUP5 MSTORE SWAP1 SWAP2 MSTORE SWAP1 KECCAK256 PUSH1 0x4 ADD SLOAD PUSH1 0xFF AND PUSH2 0xC85 JUMPI PUSH1 0x40 MLOAD PUSH3 0x461BCD PUSH1 0xE5 SHL DUP2 MSTORE PUSH1 0x20 PUSH1 0x4 DUP3 ADD MSTORE PUSH1 0x14 PUSH1 0x24 DUP3 ADD MSTORE PUSH20 0x27379030B1BA34BB32903232B632B3B0BA34B7B7 PUSH1 0x61 SHL PUSH1 0x44 DUP3 ADD MSTORE PUSH1 0x64 ADD PUSH2 0x3C7 JUMP JUMPDEST CALLER PUSH1 0x0 SWAP1 DUP2 MSTORE PUSH1 0x2 PUSH1 0x20 DUP2 DUP2 MSTORE PUSH1 0x40 DUP1 DUP5 KECCAK256 PUSH1 0x1 PUSH1 0x1 PUSH1 0xA0 SHL SUB DUP7 AND DUP6 MSTORE DUP3 MSTORE DUP1 DUP5 KECCAK256 SWAP3 DUP4 ADD SLOAD PUSH1 0x4 SWAP1 SWAP4 ADD DUP1 SLOAD PUSH1 0xFF NOT AND SWAP1 SSTORE PUSH1 0x3 SWAP1 SWAP2 MSTORE DUP3 KECCAK256 DUP1 SLOAD SWAP2 SWAP3 DUP4 SWAP3 PUSH2 0xCD1 SWAP1 DUP5 SWAP1 PUSH2 0x110C JUMP JUMPDEST SWAP1 SWAP2 SSTORE POP POP CALLER PUSH1 0x0 SWAP1 DUP2 MSTORE PUSH1 0x4 PUSH1 0x20 MSTORE PUSH1 0x40 DUP2 KECCAK256 DUP1 SLOAD DUP4 SWAP3 SWAP1 PUSH2 0xCF5 SWAP1 DUP5 SWAP1 PUSH2 0x110C JUMP JUMPDEST SWAP1 SWAP2 SSTORE POP POP PUSH1 0x40 DUP1 MLOAD DUP3 DUP2 MSTORE PUSH1 0x0 PUSH1 0x20 DUP3 ADD MSTORE PUSH1 0x1 PUSH1 0x1 PUSH1 0xA0 SHL SUB DUP5 AND SWAP2 CALLER SWAP2 PUSH32 0xC5602F8E3FAA8E09905BAA54E801F299FB3CAAF7C8E21E63AC58DB98A0999EDA SWAP2 ADD PUSH1 0x40 MLOAD DUP1 SWAP2 SUB SWAP1 LOG3 POP POP JUMP JUMPDEST PUSH1 0x5 PUSH1 0x20 MSTORE DUP2 PUSH1 0x0 MSTORE PUSH1 0x40 PUSH1 0x0 KECCAK256 DUP2 DUP2 SLOAD DUP2 LT PUSH2 0xD60 JUMPI PUSH1 0x0 DUP1 REVERT JUMPDEST PUSH1 0x0 SWAP2 DUP3 MSTORE PUSH1 0x20 SWAP1 SWAP2 KECCAK256 ADD SLOAD PUSH1 0x1 PUSH1 0x1 PUSH1 0xA0 SHL SUB AND SWAP2 POP DUP3 SWAP1 POP JUMP JUMPDEST PUSH2 0xD84 PUSH2 0xDF5 JUMP JUMPDEST PUSH1 0x1 PUSH1 0x1 PUSH1 0xA0 SHL SUB DUP2 AND PUSH2 0xDE9 JUMPI PUSH1 0x40 MLOAD PUSH3 0x461BCD PUSH1 0xE5 SHL DUP2 MSTORE PUSH1 0x20 PUSH1 0x4 DUP3 ADD MSTORE PUSH1 0x26 PUSH1 0x24 DUP3 ADD MSTORE PUSH32 0x4F776E61626C653A206E6577206F776E657220697320746865207A65726F2061 PUSH1 0x44 DUP3 ADD MSTORE PUSH6 0x646472657373 PUSH1 0xD0 SHL PUSH1 0x64 DUP3 ADD MSTORE PUSH1 0x84 ADD PUSH2 0x3C7 JUMP JUMPDEST PUSH2 0xDF2 DUP2 PUSH2 0xE4F JUMP JUMPDEST POP JUMP JUMPDEST PUSH1 0x0 SLOAD PUSH1 0x1 PUSH1 0x1 PUSH1 0xA0 SHL SUB AND CALLER EQ PUSH2 0xC16 JUMPI PUSH1 0x40 MLOAD PUSH3 0x461BCD PUSH1 0xE5 SHL DUP2 MSTORE PUSH1 0x20 PUSH1 0x4 DUP3 ADD DUP2 SWAP1 MSTORE PUSH1 0x24 DUP3 ADD MSTORE PUSH32 0x4F776E61626C653A2063616C6C6572206973206E6F7420746865206F776E6572 PUSH1 0x44 DUP3 ADD MSTORE PUSH1 0x64 ADD PUSH2 0x3C7 JUMP JUMPDEST PUSH1 0x0 DUP1 SLOAD PUSH1 0x1 PUSH1 0x1 PUSH1 0xA0 SHL SUB DUP4 DUP2 AND PUSH1 0x1 PUSH1 0x1 PUSH1 0xA0 SHL SUB NOT DUP4 AND DUP2 OR DUP5 SSTORE PUSH1 0x40 MLOAD SWAP2 SWAP1 SWAP3 AND SWAP3 DUP4 SWAP2 PUSH32 0x8BE0079C531659141344CD1FD0A4F28419497F9722A3DAAFE3B4186F6B6457E0 SWAP2 SWAP1 LOG3 POP POP JUMP JUMPDEST DUP1 CALLDATALOAD PUSH1 0x1 PUSH1 0x1 PUSH1 0xA0 SHL SUB DUP2 AND DUP2 EQ PUSH2 0xEB6 JUMPI PUSH1 0x0 DUP1 REVERT JUMPDEST SWAP2 SWAP1 POP JUMP JUMPDEST PUSH1 0x0 DUP1 PUSH1 0x40 DUP4 DUP6 SUB SLT ISZERO PUSH2 0xECE JUMPI PUSH1 0x0 DUP1 REVERT JUMPDEST PUSH2 0xED7 DUP4 PUSH2 0xE9F JUMP JUMPDEST SWAP5 PUSH1 0x20 SWAP4 SWAP1 SWAP4 ADD CALLDATALOAD SWAP4 POP POP POP JUMP JUMPDEST PUSH1 0x0 DUP1 PUSH1 0x40 DUP4 DUP6 SUB SLT ISZERO PUSH2 0xEF8 JUMPI PUSH1 0x0 DUP1 REVERT JUMPDEST PUSH2 0xF01 DUP4 PUSH2 0xE9F JUMP JUMPDEST SWAP2 POP PUSH2 0xF0F PUSH1 0x20 DUP5 ADD PUSH2 0xE9F JUMP JUMPDEST SWAP1 POP SWAP3 POP SWAP3 SWAP1 POP JUMP JUMPDEST PUSH1 0x0 PUSH1 0x20 DUP3 DUP5 SUB SLT ISZERO PUSH2 0xF2A JUMPI PUSH1 0x0 DUP1 REVERT JUMPDEST PUSH2 0xF33 DUP3 PUSH2 0xE9F JUMP JUMPDEST SWAP4 SWAP3 POP POP POP JUMP JUMPDEST PUSH4 0x4E487B71 PUSH1 0xE0 SHL PUSH1 0x0 MSTORE PUSH1 0x41 PUSH1 0x4 MSTORE PUSH1 0x24 PUSH1 0x0 REVERT JUMPDEST PUSH1 0x0 DUP3 PUSH1 0x1F DUP4 ADD SLT PUSH2 0xF61 JUMPI PUSH1 0x0 DUP1 REVERT JUMPDEST DUP2 MLOAD PUSH8 0xFFFFFFFFFFFFFFFF DUP1 DUP3 GT ISZERO PUSH2 0xF7C JUMPI PUSH2 0xF7C PUSH2 0xF3A JUMP JUMPDEST PUSH1 0x40 MLOAD PUSH1 0x1F DUP4 ADD PUSH1 0x1F NOT SWAP1 DUP2 AND PUSH1 0x3F ADD AND DUP2 ADD SWAP1 DUP3 DUP3 GT DUP2 DUP4 LT OR ISZERO PUSH2 0xFA4 JUMPI PUSH2 0xFA4 PUSH2 0xF3A JUMP JUMPDEST DUP2 PUSH1 0x40 MSTORE DUP4 DUP2 MSTORE PUSH1 0x20 SWAP3 POP DUP7 DUP4 DUP6 DUP9 ADD ADD GT ISZERO PUSH2 0xFC0 JUMPI PUSH1 0x0 DUP1 REVERT JUMPDEST PUSH1 0x0 SWAP2 POP JUMPDEST DUP4 DUP3 LT ISZERO PUSH2 0xFE2 JUMPI DUP6 DUP3 ADD DUP4 ADD MLOAD DUP2 DUP4 ADD DUP5 ADD MSTORE SWAP1 DUP3 ADD SWAP1 PUSH2 0xFC5 JUMP JUMPDEST PUSH1 0x0 SWAP4 DUP2 ADD SWAP1 SWAP3 ADD SWAP3 SWAP1 SWAP3 MSTORE SWAP5 SWAP4 POP POP POP POP JUMP JUMPDEST PUSH1 0x0 DUP1 PUSH1 0x0 DUP1 PUSH1 0x0 DUP1 PUSH1 0x0 DUP1 PUSH2 0x100 DUP10 DUP12 SUB SLT ISZERO PUSH2 0x1013 JUMPI PUSH1 0x0 DUP1 REVERT JUMPDEST DUP9 MLOAD SWAP8 POP PUSH1 0x20 DUP10 ADD MLOAD SWAP7 POP PUSH1 0x40 DUP10 ADD MLOAD SWAP6 POP PUSH1 0x60 DUP10 ADD MLOAD PUSH8 0xFFFFFFFFFFFFFFFF DUP1 DUP3 GT ISZERO PUSH2 0x1040 JUMPI PUSH1 0x0 DUP1 REVERT JUMPDEST PUSH2 0x104C DUP13 DUP4 DUP14 ADD PUSH2 0xF50 JUMP JUMPDEST SWAP7 POP PUSH1 0x80 DUP12 ADD MLOAD SWAP6 POP PUSH1 0xA0 DUP12 ADD MLOAD SWAP2 POP DUP1 DUP3 GT ISZERO PUSH2 0x1069 JUMPI PUSH1 0x0 DUP1 REVERT JUMPDEST POP PUSH2 0x1076 DUP12 DUP3 DUP13 ADD PUSH2 0xF50 JUMP JUMPDEST SWAP4 POP POP PUSH1 0xC0 DUP10 ADD MLOAD SWAP2 POP PUSH1 0xE0 DUP10 ADD MLOAD DUP1 ISZERO ISZERO DUP2 EQ PUSH2 0x1093 JUMPI PUSH1 0x0 DUP1 REVERT JUMPDEST DUP1 SWAP2 POP POP SWAP3 SWAP6 SWAP9 POP SWAP3 SWAP6 SWAP9 SWAP1 SWAP4 SWAP7 POP JUMP JUMPDEST PUSH4 0x4E487B71 PUSH1 0xE0 SHL PUSH1 0x0 MSTORE PUSH1 0x11 PUSH1 0x4 MSTORE PUSH1 0x24 PUSH1 0x0 REVERT JUMPDEST DUP1 DUP3 MUL DUP2 ISZERO DUP3 DUP3 DIV DUP5 EQ OR PUSH2 0x10D1 JUMPI PUSH2 0x10D1 PUSH2 0x10A4 JUMP JUMPDEST SWAP3 SWAP2 POP POP JUMP JUMPDEST PUSH1 0x0 DUP3 PUSH2 0x10F4 JUMPI PUSH4 0x4E487B71 PUSH1 0xE0 SHL PUSH1 0x0 MSTORE PUSH1 0x12 PUSH1 0x4 MSTORE PUSH1 0x24 PUSH1 0x0 REVERT JUMPDEST POP DIV SWAP1 JUMP JUMPDEST DUP1 DUP3 ADD DUP1 DUP3 GT ISZERO PUSH2 0x10D1 JUMPI PUSH2 0x10D1 PUSH2 0x10A4 JUMP JUMPDEST DUP2 DUP2 SUB DUP2 DUP2 GT ISZERO PUSH2 0x10D1 JUMPI PUSH2 0x10D1 PUSH2 0x10A4 JUMP JUMPDEST PUSH4 0x4E487B71 PUSH1 0xE0 SHL PUSH1 0x0 MSTORE PUSH1 0x32 PUSH1 0x4 MSTORE PUSH1 0x24 PUSH1 0x0 REVERT JUMPDEST PUSH1 0x0 PUSH1 0x1 DUP3 ADD PUSH2 0x1147 JUMPI PUSH2 0x1147 PUSH2 0x10A4 JUMP JUMPDEST POP PUSH1 0x1 ADD SWAP1 JUMP JUMPDEST PUSH1 0x0 PUSH1 0x1 PUSH1 0xFF SHL DUP3 ADD PUSH2 0x1163 JUMPI PUSH2 0x1163 PUSH2 0x10A4 JUMP JUMPDEST POP PUSH1 0x0 SUB SWAP1 JUMP INVALID LOG2 PUSH5 0x6970667358 0x22 SLT KECCAK256 0x2B 0xFC SUB 0x4C DUP15 CODECOPY 0x5C SWAP14 SWAP8 0xEA 0xF8 0xE4 RETURNDATACOPY PUSH5 0xBC3322ED6D 0xFB 0xB9 MLOAD 0xAB SELFBALANCE SWAP11 0x2D 0xE0 PUSH19 0x8394CB9664736F6C6343000814003300000000 "},"methodIdentifiers":{"MAX_DELEGATION_PERCENT()":"fbe81d36","MIN_SCORE_TO_DELEGATE()":"a7fc4e46","creditPassport()":"21a49a5a","delegate(address,uint256)":"026e402b","delegateeDelegators(address,uint256)":"c1bf1b9b","delegations(address,address)":"c64814dd","getDelegatedPoints(address)":"ee66ce03","getDelegation(address,address)":"15049a5a","getEffectiveScore(address)":"29aad6d8","owner()":"8da5cb5b","renounceOwnership()":"715018a6","revokeDelegation(address)":"808d5014","slashDelegator(address,address)":"27da6831","totalDelegatedFrom(address)":"4d8c819b","totalDelegatedTo(address)":"d7f90889","transferOwnership(address)":"f2fde38b"}}}}}