{
  "_format": "hh-sol-artifact-1",
  "contractName": "MerchantRegistry",
  "sourceName": "src/MerchantRegistry.sol",
  "abi": [
    {
      "inputs": [
        {
          "internalType": "address",
          "name": "initialOwner",
          "type": "address"
        }
      ],
      "stateMutability": "nonpayable",
      "type": "constructor"
    },
    {
      "anonymous": false,
      "inputs": [
        {
          "indexed": true,
          "internalType": "address",
          "name": "owner",
          "type": "address"
        },
        {
          "indexed": true,
          "internalType": "address",
          "name": "approved",
          "type": "address"
        },
        {
          "indexed": true,
          "internalType": "uint256",
          "name": "tokenId",
          "type": "uint256"
        }
      ],
      "name": "Approval",
      "type": "event"
    },
    {
      "anonymous": false,
      "inputs": [
        {
          "indexed": true,
          "internalType": "address",
          "name": "owner",
          "type": "address"
        },
        {
          "indexed": true,
          "internalType": "address",
          "name": "operator",
          "type": "address"
        },
        {
          "indexed": false,
          "internalType": "bool",
          "name": "approved",
          "type": "bool"
        }
      ],
      "name": "ApprovalForAll",
      "type": "event"
    },
    {
      "anonymous": false,
      "inputs": [
        {
          "indexed": false,
          "internalType": "uint256",
          "name": "_fromTokenId",
          "type": "uint256"
        },
        {
          "indexed": false,
          "internalType": "uint256",
          "name": "_toTokenId",
          "type": "uint256"
        }
      ],
      "name": "BatchMetadataUpdate",
      "type": "event"
    },
    {
      "anonymous": false,
      "inputs": [
        {
          "indexed": false,
          "internalType": "string",
          "name": "name",
          "type": "string"
        }
      ],
      "name": "MerchantDeactivated",
      "type": "event"
    },
    {
      "anonymous": false,
      "inputs": [
        {
          "indexed": false,
          "internalType": "string",
          "name": "name",
          "type": "string"
        },
        {
          "indexed": false,
          "internalType": "string",
          "name": "category",
          "type": "string"
        },
        {
          "indexed": false,
          "internalType": "string",
          "name": "verificationLevel",
          "type": "string"
        },
        {
          "indexed": false,
          "internalType": "address",
          "name": "merchantAddress",
          "type": "address"
        },
        {
          "indexed": false,
          "internalType": "uint256",
          "name": "tokenId",
          "type": "uint256"
        }
      ],
      "name": "MerchantRegistered",
      "type": "event"
    },
    {
      "anonymous": false,
      "inputs": [
        {
          "indexed": false,
          "internalType": "uint256",
          "name": "_tokenId",
          "type": "uint256"
        }
      ],
      "name": "MetadataUpdate",
      "type": "event"
    },
    {
      "anonymous": false,
      "inputs": [
        {
          "indexed": true,
          "internalType": "address",
          "name": "previousOwner",
          "type": "address"
        },
        {
          "indexed": true,
          "internalType": "address",
          "name": "newOwner",
          "type": "address"
        }
      ],
      "name": "OwnershipTransferred",
      "type": "event"
    },
    {
      "anonymous": false,
      "inputs": [
        {
          "indexed": true,
          "internalType": "address",
          "name": "from",
          "type": "address"
        },
        {
          "indexed": true,
          "internalType": "address",
          "name": "to",
          "type": "address"
        },
        {
          "indexed": true,
          "internalType": "uint256",
          "name": "tokenId",
          "type": "uint256"
        }
      ],
      "name": "Transfer",
      "type": "event"
    },
    {
      "inputs": [
        {
          "internalType": "address",
          "name": "to",
          "type": "address"
        },
        {
          "internalType": "uint256",
          "name": "tokenId",
          "type": "uint256"
        }
      ],
      "name": "approve",
      "outputs": [],
      "stateMutability": "nonpayable",
      "type": "function"
    },
    {
      "inputs": [
        {
          "internalType": "address",
          "name": "owner",
          "type": "address"
        }
      ],
      "name": "balanceOf",
      "outputs": [
        {
          "internalType": "uint256",
          "name": "",
          "type": "uint256"
        }
      ],
      "stateMutability": "view",
      "type": "function"
    },
    {
      "inputs": [
        {
          "internalType": "string",
          "name": "name",
          "type": "string"
        }
      ],
      "name": "deactivateMerchant",
      "outputs": [],
      "stateMutability": "nonpayable",
      "type": "function"
    },
    {
      "inputs": [
        {
          "internalType": "uint256",
          "name": "tokenId",
          "type": "uint256"
        }
      ],
      "name": "getApproved",
      "outputs": [
        {
          "internalType": "address",
          "name": "",
          "type": "address"
        }
      ],
      "stateMutability": "view",
      "type": "function"
    },
    {
      "inputs": [
        {
          "internalType": "string",
          "name": "name",
          "type": "string"
        }
      ],
      "name": "getMerchant",
      "outputs": [
        {
          "internalType": "string",
          "name": "",
          "type": "string"
        },
        {
          "internalType": "string",
          "name": "",
          "type": "string"
        },
        {
          "internalType": "string",
          "name": "",
          "type": "string"
        },
        {
          "internalType": "address",
          "name": "",
          "type": "address"
        },
        {
          "internalType": "bool",
          "name": "",
          "type": "bool"
        },
        {
          "internalType": "uint256",
          "name": "",
          "type": "uint256"
        }
      ],
      "stateMutability": "view",
      "type": "function"
    },
    {
      "inputs": [],
      "name": "getMerchantCount",
      "outputs": [
        {
          "internalType": "uint256",
          "name": "",
          "type": "uint256"
        }
      ],
      "stateMutability": "view",
      "type": "function"
    },
    {
      "inputs": [
        {
          "internalType": "address",
          "name": "owner",
          "type": "address"
        },
        {
          "internalType": "address",
          "name": "operator",
          "type": "address"
        }
      ],
      "name": "isApprovedForAll",
      "outputs": [
        {
          "internalType": "bool",
          "name": "",
          "type": "bool"
        }
      ],
      "stateMutability": "view",
      "type": "function"
    },
    {
      "inputs": [
        {
          "internalType": "string",
          "name": "name",
          "type": "string"
        }
      ],
      "name": "isTrustedMerchant",
      "outputs": [
        {
          "internalType": "bool",
          "name": "",
          "type": "bool"
        }
      ],
      "stateMutability": "view",
      "type": "function"
    },
    {
      "inputs": [
        {
          "internalType": "uint256",
          "name": "",
          "type": "uint256"
        }
      ],
      "name": "merchantKeys",
      "outputs": [
        {
          "internalType": "bytes32",
          "name": "",
          "type": "bytes32"
        }
      ],
      "stateMutability": "view",
      "type": "function"
    },
    {
      "inputs": [],
      "name": "name",
      "outputs": [
        {
          "internalType": "string",
          "name": "",
          "type": "string"
        }
      ],
      "stateMutability": "view",
      "type": "function"
    },
    {
      "inputs": [],
      "name": "owner",
      "outputs": [
        {
          "internalType": "address",
          "name": "",
          "type": "address"
        }
      ],
      "stateMutability": "view",
      "type": "function"
    },
    {
      "inputs": [
        {
          "internalType": "uint256",
          "name": "tokenId",
          "type": "uint256"
        }
      ],
      "name": "ownerOf",
      "outputs": [
        {
          "internalType": "address",
          "name": "",
          "type": "address"
        }
      ],
      "stateMutability": "view",
      "type": "function"
    },
    {
      "inputs": [
        {
          "internalType": "string",
          "name": "name",
          "type": "string"
        },
        {
          "internalType": "string",
          "name": "category",
          "type": "string"
        },
        {
          "internalType": "string",
          "name": "verificationLevel",
          "type": "string"
        },
        {
          "internalType": "address",
          "name": "merchantAddress",
          "type": "address"
        },
        {
          "internalType": "string",
          "name": "tokenURI_",
          "type": "string"
        }
      ],
      "name": "registerMerchant",
      "outputs": [
        {
          "internalType": "uint256",
          "name": "",
          "type": "uint256"
        }
      ],
      "stateMutability": "nonpayable",
      "type": "function"
    },
    {
      "inputs": [],
      "name": "renounceOwnership",
      "outputs": [],
      "stateMutability": "nonpayable",
      "type": "function"
    },
    {
      "inputs": [
        {
          "internalType": "address",
          "name": "from",
          "type": "address"
        },
        {
          "internalType": "address",
          "name": "to",
          "type": "address"
        },
        {
          "internalType": "uint256",
          "name": "tokenId",
          "type": "uint256"
        }
      ],
      "name": "safeTransferFrom",
      "outputs": [],
      "stateMutability": "nonpayable",
      "type": "function"
    },
    {
      "inputs": [
        {
          "internalType": "address",
          "name": "from",
          "type": "address"
        },
        {
          "internalType": "address",
          "name": "to",
          "type": "address"
        },
        {
          "internalType": "uint256",
          "name": "tokenId",
          "type": "uint256"
        },
        {
          "internalType": "bytes",
          "name": "data",
          "type": "bytes"
        }
      ],
      "name": "safeTransferFrom",
      "outputs": [],
      "stateMutability": "nonpayable",
      "type": "function"
    },
    {
      "inputs": [
        {
          "internalType": "address",
          "name": "operator",
          "type": "address"
        },
        {
          "internalType": "bool",
          "name": "approved",
          "type": "bool"
        }
      ],
      "name": "setApprovalForAll",
      "outputs": [],
      "stateMutability": "nonpayable",
      "type": "function"
    },
    {
      "inputs": [
        {
          "internalType": "bytes4",
          "name": "interfaceId",
          "type": "bytes4"
        }
      ],
      "name": "supportsInterface",
      "outputs": [
        {
          "internalType": "bool",
          "name": "",
          "type": "bool"
        }
      ],
      "stateMutability": "view",
      "type": "function"
    },
    {
      "inputs": [],
      "name": "symbol",
      "outputs": [
        {
          "internalType": "string",
          "name": "",
          "type": "string"
        }
      ],
      "stateMutability": "view",
      "type": "function"
    },
    {
      "inputs": [
        {
          "internalType": "uint256",
          "name": "tokenId",
          "type": "uint256"
        }
      ],
      "name": "tokenURI",
      "outputs": [
        {
          "internalType": "string",
          "name": "",
          "type": "string"
        }
      ],
      "stateMutability": "view",
      "type": "function"
    },
    {
      "inputs": [
        {
          "internalType": "address",
          "name": "from",
          "type": "address"
        },
        {
          "internalType": "address",
          "name": "to",
          "type": "address"
        },
        {
          "internalType": "uint256",
          "name": "tokenId",
          "type": "uint256"
        }
      ],
      "name": "transferFrom",
      "outputs": [],
      "stateMutability": "nonpayable",
      "type": "function"
    },
    {
      "inputs": [
        {
          "internalType": "address",
          "name": "newOwner",
          "type": "address"
        }
      ],
      "name": "transferOwnership",
      "outputs": [],
      "stateMutability": "nonpayable",
      "type": "function"
    }
  ],
  "bytecode": "0x60806040523480156200001157600080fd5b506040516200260438038062002604833981016040819052620000349162000132565b6040518060400160405280601181526020017010dc9959131a5b9ac813595c98da185b9d607a1b81525060405180604001604052806005815260200164434c4d524360d81b81525081600090816200008d919062000209565b5060016200009c828262000209565b505050620000b9620000b3620000dc60201b60201c565b620000e0565b6001600160a01b0381163314620000d557620000d581620000e0565b50620002d5565b3390565b600780546001600160a01b038381166001600160a01b0319831681179093556040519116919082907f8be0079c531659141344cd1fd0a4f28419497f9722a3daafe3b4186f6b6457e090600090a35050565b6000602082840312156200014557600080fd5b81516001600160a01b03811681146200015d57600080fd5b9392505050565b634e487b7160e01b600052604160045260246000fd5b600181811c908216806200018f57607f821691505b602082108103620001b057634e487b7160e01b600052602260045260246000fd5b50919050565b601f8211156200020457600081815260208120601f850160051c81016020861015620001df5750805b601f850160051c820191505b818110156200020057828155600101620001eb565b5050505b505050565b81516001600160401b0381111562000225576200022562000164565b6200023d816200023684546200017a565b84620001b6565b602080601f8311600181146200027557600084156200025c5750858301515b600019600386901b1c1916600185901b17855562000200565b600085815260208120601f198616915b82811015620002a65788860151825594840194600190910190840162000285565b5085821015620002c55787850151600019600388901b60f8161c191681555b5050505050600190811b01905550565b61231f80620002e56000396000f3fe608060405234801561001057600080fd5b50600436106101425760003560e01c806370a08231116100b8578063b88d4fde1161007c578063b88d4fde14610293578063c87b56dd146102a6578063d87cf49a146102b9578063e563ff4c146102cc578063e985e9c5146102f1578063f2fde38b1461030457600080fd5b806370a082311461024c578063715018a61461025f5780638da5cb5b1461026757806395d89b4114610278578063a22cb4651461028057600080fd5b806323b872dd1161010a57806323b872dd146101e55780632d0c31c2146101f8578063341a325a1461020b57806342842e0e1461021e57806344d4aeb0146102315780636352211e1461023957600080fd5b806301ffc9a71461014757806306fdde031461016f578063081812fc14610184578063095ea7b3146101af5780630ca49f2d146101c4575b600080fd5b61015a610155366004611acc565b610317565b60405190151581526020015b60405180910390f35b610177610342565b6040516101669190611b39565b610197610192366004611b4c565b6103d4565b6040516001600160a01b039091168152602001610166565b6101c26101bd366004611b81565b6103fb565b005b6101d76101d2366004611b4c565b610515565b604051908152602001610166565b6101c26101f3366004611bab565b610536565b6101c2610206366004611c93565b610567565b61015a610219366004611c93565b610659565b6101c261022c366004611bab565b61071b565b600b546101d7565b610197610247366004611b4c565b610736565b6101d761025a366004611cc8565b610796565b6101c261081c565b6007546001600160a01b0316610197565b610177610830565b6101c261028e366004611ce3565b61083f565b6101c26102a1366004611d1f565b61084e565b6101776102b4366004611b4c565b610886565b6101d76102c7366004611d9b565b610996565b6102df6102da366004611c93565b610c29565b60405161016696959493929190611e59565b61015a6102ff366004611eba565b610ea5565b6101c2610312366004611cc8565b610ed3565b60006001600160e01b03198216632483248360e11b148061033c575061033c82610f4c565b92915050565b60606000805461035190611eed565b80601f016020809104026020016040519081016040528092919081815260200182805461037d90611eed565b80156103ca5780601f1061039f576101008083540402835291602001916103ca565b820191906000526020600020905b8154815290600101906020018083116103ad57829003601f168201915b5050505050905090565b60006103df82610f9c565b506000908152600460205260409020546001600160a01b031690565b600061040682610736565b9050806001600160a01b0316836001600160a01b0316036104785760405162461bcd60e51b815260206004820152602160248201527f4552433732313a20617070726f76616c20746f2063757272656e74206f776e656044820152603960f91b60648201526084015b60405180910390fd5b336001600160a01b038216148061049457506104948133610ea5565b6105065760405162461bcd60e51b815260206004820152603d60248201527f4552433732313a20617070726f76652063616c6c6572206973206e6f7420746f60448201527f6b656e206f776e6572206f7220617070726f76656420666f7220616c6c000000606482015260840161046f565b6105108383610ffb565b505050565b600b818154811061052557600080fd5b600091825260209091200154905081565b6105403382611069565b61055c5760405162461bcd60e51b815260040161046f90611f27565b6105108383836110c7565b61056f61122b565b600061057a82611285565b60405160200161058a9190611f74565b60408051808303601f19018152918152815160209283012060008181526009909352912060030154909150600160a01b900460ff166106015760405162461bcd60e51b81526020600482015260136024820152724d65726368616e74206e6f742061637469766560681b604482015260640161046f565b60008181526009602052604090819020600301805460ff60a01b19169055517f097e1e597d284273822a6b5913af266d167a5d9d8898affa17f79f3f882de5a59061064d908490611b39565b60405180910390a15050565b60008061066583611285565b6040516020016106759190611f74565b60408051808303601f19018152918152815160209283012060008181526009909352912060030154909150600160a01b900460ff168015610714575060405166151c9d5cdd195960ca1b602082015260270160408051601f1981840301815282825280516020918201206000858152600983529290922091926106fc926002019101611f90565b60405160208183030381529060405280519060200120145b9392505050565b6105108383836040518060200160405280600081525061084e565b6000818152600260205260408120546001600160a01b03168061033c5760405162461bcd60e51b8152602060048201526018602482015277115490cdcc8c4e881a5b9d985b1a59081d1bdad95b88125160421b604482015260640161046f565b60006001600160a01b0382166108005760405162461bcd60e51b815260206004820152602960248201527f4552433732313a2061646472657373207a65726f206973206e6f7420612076616044820152683634b21037bbb732b960b91b606482015260840161046f565b506001600160a01b031660009081526003602052604090205490565b61082461122b565b61082e60006113e8565b565b60606001805461035190611eed565b61084a33838361143a565b5050565b6108583383611069565b6108745760405162461bcd60e51b815260040161046f90611f27565b61088084848484611508565b50505050565b606061089182610f9c565b600082815260066020526040812080546108aa90611eed565b80601f01602080910402602001604051908101604052809291908181526020018280546108d690611eed565b80156109235780601f106108f857610100808354040283529160200191610923565b820191906000526020600020905b81548152906001019060200180831161090657829003601f168201915b50505050509050600061094160408051602081019091526000815290565b90508051600003610953575092915050565b81511561098557808260405160200161096d929190612006565b60405160208183030381529060405292505050919050565b61098e8461153b565b949350505050565b60006109a061122b565b60006109ab87611285565b6040516020016109bb9190611f74565b60408051601f198184030181529181528151602092830120600081815260099093529120600401549091501580610a0b5750600081815260096020526040902060030154600160a01b900460ff16155b610a575760405162461bcd60e51b815260206004820152601b60248201527f4d65726368616e7420616c726561647920726567697374657265640000000000604482015260640161046f565b60088054906000610a678361204b565b9091555050600854610a7985826115ae565b610a8381856115c8565b6040805160c08101825289815260208082018a90528183018990526001600160a01b03881660608301526001608083015260a08201849052600085815260099091529190912081518190610ad790826120b2565b5060208201516001820190610aec90826120b2565b5060408201516002820190610b0190826120b2565b50606082015160038201805460808501511515600160a01b026001600160a81b03199091166001600160a01b039093169290921791909117905560a0909101516004909101556000818152600a60205260408120839055805b600b54811015610ba35783600b8281548110610b7857610b78612172565b906000526020600020015403610b915760019150610ba3565b80610b9b8161204b565b915050610b5a565b5080610bdf57600b80546001810182556000919091527f0175b7a638427703f0dbe7bb9bbf987a2551717b34e79f33b5b1008d1fa01db9018390555b7ef64fbe137b791850a940decacb9521105cafb0a4ae1e8957d1096dd17b4ef68989898986604051610c15959493929190612188565b60405180910390a150979650505050505050565b6060806060600080600080610c3d88611285565b604051602001610c4d9190611f74565b6040516020818303038152906040528051906020012090506000600960008381526020019081526020016000206040518060c0016040529081600082018054610c9590611eed565b80601f0160208091040260200160405190810160405280929190818152602001828054610cc190611eed565b8015610d0e5780601f10610ce357610100808354040283529160200191610d0e565b820191906000526020600020905b815481529060010190602001808311610cf157829003601f168201915b50505050508152602001600182018054610d2790611eed565b80601f0160208091040260200160405190810160405280929190818152602001828054610d5390611eed565b8015610da05780601f10610d7557610100808354040283529160200191610da0565b820191906000526020600020905b815481529060010190602001808311610d8357829003601f168201915b50505050508152602001600282018054610db990611eed565b80601f0160208091040260200160405190810160405280929190818152602001828054610de590611eed565b8015610e325780601f10610e0757610100808354040283529160200191610e32565b820191906000526020600020905b815481529060010190602001808311610e1557829003601f168201915b505050918352505060038201546001600160a01b038116602080840191909152600160a01b90910460ff1615156040808401919091526004909301546060928301528351908401519284015191840151608085015160a090950151919e939d50919b509099509197509095509350505050565b6001600160a01b03918216600090815260056020908152604080832093909416825291909152205460ff1690565b610edb61122b565b6001600160a01b038116610f405760405162461bcd60e51b815260206004820152602660248201527f4f776e61626c653a206e6577206f776e657220697320746865207a65726f206160448201526564647265737360d01b606482015260840161046f565b610f49816113e8565b50565b60006001600160e01b031982166380ac58cd60e01b1480610f7d57506001600160e01b03198216635b5e139f60e01b145b8061033c57506301ffc9a760e01b6001600160e01b031983161461033c565b6000818152600260205260409020546001600160a01b0316610f495760405162461bcd60e51b8152602060048201526018602482015277115490cdcc8c4e881a5b9d985b1a59081d1bdad95b88125160421b604482015260640161046f565b600081815260046020526040902080546001600160a01b0319166001600160a01b038416908117909155819061103082610736565b6001600160a01b03167f8c5be1e5ebec7d5bd14f71427d1e84f3dd0314c0f7b2291e5b200ac8c7c3b92560405160405180910390a45050565b60008061107583610736565b9050806001600160a01b0316846001600160a01b0316148061109c575061109c8185610ea5565b8061098e5750836001600160a01b03166110b5846103d4565b6001600160a01b031614949350505050565b826001600160a01b03166110da82610736565b6001600160a01b0316146111005760405162461bcd60e51b815260040161046f906121df565b6001600160a01b0382166111625760405162461bcd60e51b8152602060048201526024808201527f4552433732313a207472616e7366657220746f20746865207a65726f206164646044820152637265737360e01b606482015260840161046f565b826001600160a01b031661117582610736565b6001600160a01b03161461119b5760405162461bcd60e51b815260040161046f906121df565b600081815260046020908152604080832080546001600160a01b03199081169091556001600160a01b0387811680865260038552838620805460001901905590871680865283862080546001019055868652600290945282852080549092168417909155905184937fddf252ad1be2c89b69c2b068fc378daa952ba7f163c4a11628f55a4df523b3ef91a4505050565b6007546001600160a01b0316331461082e5760405162461bcd60e51b815260206004820181905260248201527f4f776e61626c653a2063616c6c6572206973206e6f7420746865206f776e6572604482015260640161046f565b606060008290506000815167ffffffffffffffff8111156112a8576112a8611be7565b6040519080825280601f01601f1916602001820160405280156112d2576020820181803683370190505b50905060005b82518110156113e05760418382815181106112f5576112f5612172565b016020015160f81c108015906113255750605a83828151811061131a5761131a612172565b016020015160f81c11155b156113875782818151811061133c5761133c612172565b602001015160f81c60f81b60f81c60206113569190612224565b60f81b82828151811061136b5761136b612172565b60200101906001600160f81b031916908160001a9053506113ce565b82818151811061139957611399612172565b602001015160f81c60f81b8282815181106113b6576113b6612172565b60200101906001600160f81b031916908160001a9053505b806113d88161204b565b9150506112d8565b509392505050565b600780546001600160a01b038381166001600160a01b0319831681179093556040519116919082907f8be0079c531659141344cd1fd0a4f28419497f9722a3daafe3b4186f6b6457e090600090a35050565b816001600160a01b0316836001600160a01b03160361149b5760405162461bcd60e51b815260206004820152601960248201527f4552433732313a20617070726f766520746f2063616c6c657200000000000000604482015260640161046f565b6001600160a01b03838116600081815260056020908152604080832094871680845294825291829020805460ff191686151590811790915591519182527f17307eab39ab6107e8899845ad3d59bd9653f200f220920489ca2b5937696c31910160405180910390a3505050565b6115138484846110c7565b61151f8484848461168c565b6108805760405162461bcd60e51b815260040161046f9061223d565b606061154682610f9c565b600061155d60408051602081019091526000815290565b9050600081511161157d5760405180602001604052806000815250610714565b806115878461178d565b604051602001611598929190612006565b6040516020818303038152906040529392505050565b61084a828260405180602001604052806000815250611820565b6000828152600260205260409020546001600160a01b03166116435760405162461bcd60e51b815260206004820152602e60248201527f45524337323155524953746f726167653a2055524920736574206f66206e6f6e60448201526d32bc34b9ba32b73a103a37b5b2b760911b606482015260840161046f565b600082815260066020526040902061165b82826120b2565b506040518281527ff8e1a15aba9398e019f0b49df1a4fde98ee17ae345cb5f6b5e2c27f5033e8ce79060200161064d565b60006001600160a01b0384163b1561178257604051630a85bd0160e11b81526001600160a01b0385169063150b7a02906116d090339089908890889060040161228f565b6020604051808303816000875af192505050801561170b575060408051601f3d908101601f19168201909252611708918101906122cc565b60015b611768573d808015611739576040519150601f19603f3d011682016040523d82523d6000602084013e61173e565b606091505b5080516000036117605760405162461bcd60e51b815260040161046f9061223d565b805181602001fd5b6001600160e01b031916630a85bd0160e11b14905061098e565b506001949350505050565b6060600061179a83611853565b600101905060008167ffffffffffffffff8111156117ba576117ba611be7565b6040519080825280601f01601f1916602001820160405280156117e4576020820181803683370190505b5090508181016020015b600019016f181899199a1a9b1b9c1cb0b131b232b360811b600a86061a8153600a85049450846117ee57509392505050565b61182a838361192b565b611837600084848461168c565b6105105760405162461bcd60e51b815260040161046f9061223d565b60008072184f03e93ff9f4daa797ed6e38ed64bf6a1f0160401b83106118925772184f03e93ff9f4daa797ed6e38ed64bf6a1f0160401b830492506040015b6d04ee2d6d415b85acef810000000083106118be576d04ee2d6d415b85acef8100000000830492506020015b662386f26fc1000083106118dc57662386f26fc10000830492506010015b6305f5e10083106118f4576305f5e100830492506008015b612710831061190857612710830492506004015b6064831061191a576064830492506002015b600a831061033c5760010192915050565b6001600160a01b0382166119815760405162461bcd60e51b815260206004820181905260248201527f4552433732313a206d696e7420746f20746865207a65726f2061646472657373604482015260640161046f565b6000818152600260205260409020546001600160a01b0316156119e65760405162461bcd60e51b815260206004820152601c60248201527f4552433732313a20746f6b656e20616c7265616479206d696e74656400000000604482015260640161046f565b6000818152600260205260409020546001600160a01b031615611a4b5760405162461bcd60e51b815260206004820152601c60248201527f4552433732313a20746f6b656e20616c7265616479206d696e74656400000000604482015260640161046f565b6001600160a01b038216600081815260036020908152604080832080546001019055848352600290915280822080546001600160a01b0319168417905551839291907fddf252ad1be2c89b69c2b068fc378daa952ba7f163c4a11628f55a4df523b3ef908290a45050565b6001600160e01b031981168114610f4957600080fd5b600060208284031215611ade57600080fd5b813561071481611ab6565b60005b83811015611b04578181015183820152602001611aec565b50506000910152565b60008151808452611b25816020860160208601611ae9565b601f01601f19169290920160200192915050565b6020815260006107146020830184611b0d565b600060208284031215611b5e57600080fd5b5035919050565b80356001600160a01b0381168114611b7c57600080fd5b919050565b60008060408385031215611b9457600080fd5b611b9d83611b65565b946020939093013593505050565b600080600060608486031215611bc057600080fd5b611bc984611b65565b9250611bd760208501611b65565b9150604084013590509250925092565b634e487b7160e01b600052604160045260246000fd5b600067ffffffffffffffff80841115611c1857611c18611be7565b604051601f8501601f19908116603f01168101908282118183101715611c4057611c40611be7565b81604052809350858152868686011115611c5957600080fd5b858560208301376000602087830101525050509392505050565b600082601f830112611c8457600080fd5b61071483833560208501611bfd565b600060208284031215611ca557600080fd5b813567ffffffffffffffff811115611cbc57600080fd5b61098e84828501611c73565b600060208284031215611cda57600080fd5b61071482611b65565b60008060408385031215611cf657600080fd5b611cff83611b65565b915060208301358015158114611d1457600080fd5b809150509250929050565b60008060008060808587031215611d3557600080fd5b611d3e85611b65565b9350611d4c60208601611b65565b925060408501359150606085013567ffffffffffffffff811115611d6f57600080fd5b8501601f81018713611d8057600080fd5b611d8f87823560208401611bfd565b91505092959194509250565b600080600080600060a08688031215611db357600080fd5b853567ffffffffffffffff80821115611dcb57600080fd5b611dd789838a01611c73565b96506020880135915080821115611ded57600080fd5b611df989838a01611c73565b95506040880135915080821115611e0f57600080fd5b611e1b89838a01611c73565b9450611e2960608901611b65565b93506080880135915080821115611e3f57600080fd5b50611e4c88828901611c73565b9150509295509295909350565b60c081526000611e6c60c0830189611b0d565b8281036020840152611e7e8189611b0d565b90508281036040840152611e928188611b0d565b6001600160a01b039690961660608401525050911515608083015260a0909101529392505050565b60008060408385031215611ecd57600080fd5b611ed683611b65565b9150611ee460208401611b65565b90509250929050565b600181811c90821680611f0157607f821691505b602082108103611f2157634e487b7160e01b600052602260045260246000fd5b50919050565b6020808252602d908201527f4552433732313a2063616c6c6572206973206e6f7420746f6b656e206f776e6560408201526c1c881bdc88185c1c1c9bdd9959609a1b606082015260800190565b60008251611f86818460208701611ae9565b9190910192915050565b6000808354611f9e81611eed565b60018281168015611fb65760018114611fcb57611ffa565b60ff1984168752821515830287019450611ffa565b8760005260208060002060005b85811015611ff15781548a820152908401908201611fd8565b50505082870194505b50929695505050505050565b60008351612018818460208801611ae9565b83519083019061202c818360208801611ae9565b01949350505050565b634e487b7160e01b600052601160045260246000fd5b60006001820161205d5761205d612035565b5060010190565b601f82111561051057600081815260208120601f850160051c8101602086101561208b5750805b601f850160051c820191505b818110156120aa57828155600101612097565b505050505050565b815167ffffffffffffffff8111156120cc576120cc611be7565b6120e0816120da8454611eed565b84612064565b602080601f83116001811461211557600084156120fd5750858301515b600019600386901b1c1916600185901b1785556120aa565b600085815260208120601f198616915b8281101561214457888601518255948401946001909101908401612125565b50858210156121625787850151600019600388901b60f8161c191681555b5050505050600190811b01905550565b634e487b7160e01b600052603260045260246000fd5b60a08152600061219b60a0830188611b0d565b82810360208401526121ad8188611b0d565b905082810360408401526121c18187611b0d565b6001600160a01b039590951660608401525050608001529392505050565b60208082526025908201527f4552433732313a207472616e736665722066726f6d20696e636f72726563742060408201526437bbb732b960d91b606082015260800190565b60ff818116838216019081111561033c5761033c612035565b60208082526032908201527f4552433732313a207472616e7366657220746f206e6f6e20455243373231526560408201527131b2b4bb32b91034b6b83632b6b2b73a32b960711b606082015260800190565b6001600160a01b03858116825284166020820152604081018390526080606082018190526000906122c290830184611b0d565b9695505050505050565b6000602082840312156122de57600080fd5b815161071481611ab656fea2646970667358221220b9b84d5ceaeb4d8defec6286d605e588d923a92138179145788ed7dd0b43d12964736f6c63430008140033",
  "linkReferences": {},
  "deployedLinkReferences": {}
}