{
  "_format": "hh-sol-artifact-1",
  "contractName": "PaymentVerification",
  "sourceName": "src/PaymentVerification.sol",
  "abi": [
    {
      "inputs": [
        {
          "internalType": "address",
          "name": "initialOwner",
          "type": "address"
        },
        {
          "internalType": "address",
          "name": "_creditPassport",
          "type": "address"
        },
        {
          "internalType": "address",
          "name": "_merchantRegistry",
          "type": "address"
        }
      ],
      "stateMutability": "nonpayable",
      "type": "constructor"
    },
    {
      "anonymous": false,
      "inputs": [
        {
          "indexed": true,
          "internalType": "address",
          "name": "user",
          "type": "address"
        },
        {
          "indexed": false,
          "internalType": "string",
          "name": "transactionId",
          "type": "string"
        }
      ],
      "name": "DuplicateRejected",
      "type": "event"
    },
    {
      "anonymous": false,
      "inputs": [
        {
          "indexed": true,
          "internalType": "address",
          "name": "previousOwner",
          "type": "address"
        },
        {
          "indexed": true,
          "internalType": "address",
          "name": "newOwner",
          "type": "address"
        }
      ],
      "name": "OwnershipTransferred",
      "type": "event"
    },
    {
      "anonymous": false,
      "inputs": [
        {
          "indexed": true,
          "internalType": "address",
          "name": "user",
          "type": "address"
        },
        {
          "indexed": false,
          "internalType": "string",
          "name": "transactionId",
          "type": "string"
        },
        {
          "indexed": false,
          "internalType": "string",
          "name": "merchant",
          "type": "string"
        },
        {
          "indexed": false,
          "internalType": "uint256",
          "name": "amount",
          "type": "uint256"
        },
        {
          "indexed": false,
          "internalType": "bool",
          "name": "isTrusted",
          "type": "bool"
        },
        {
          "indexed": false,
          "internalType": "int256",
          "name": "scoreDelta",
          "type": "int256"
        },
        {
          "indexed": false,
          "internalType": "uint256",
          "name": "timestamp",
          "type": "uint256"
        }
      ],
      "name": "PaymentRecorded",
      "type": "event"
    },
    {
      "inputs": [],
      "name": "LATE_REPAYMENT_DELTA",
      "outputs": [
        {
          "internalType": "int256",
          "name": "",
          "type": "int256"
        }
      ],
      "stateMutability": "view",
      "type": "function"
    },
    {
      "inputs": [],
      "name": "LOAN_REPAYMENT_DELTA",
      "outputs": [
        {
          "internalType": "int256",
          "name": "",
          "type": "int256"
        }
      ],
      "stateMutability": "view",
      "type": "function"
    },
    {
      "inputs": [],
      "name": "TRUSTED_MERCHANT_DELTA",
      "outputs": [
        {
          "internalType": "int256",
          "name": "",
          "type": "int256"
        }
      ],
      "stateMutability": "view",
      "type": "function"
    },
    {
      "inputs": [],
      "name": "UNVERIFIED_MERCHANT_DELTA",
      "outputs": [
        {
          "internalType": "int256",
          "name": "",
          "type": "int256"
        }
      ],
      "stateMutability": "view",
      "type": "function"
    },
    {
      "inputs": [
        {
          "internalType": "uint256",
          "name": "",
          "type": "uint256"
        }
      ],
      "name": "allTransactionHashes",
      "outputs": [
        {
          "internalType": "bytes32",
          "name": "",
          "type": "bytes32"
        }
      ],
      "stateMutability": "view",
      "type": "function"
    },
    {
      "inputs": [
        {
          "internalType": "address",
          "name": "user",
          "type": "address"
        }
      ],
      "name": "clearUserRecords",
      "outputs": [],
      "stateMutability": "nonpayable",
      "type": "function"
    },
    {
      "inputs": [],
      "name": "creditPassport",
      "outputs": [
        {
          "internalType": "contract CreditPassport",
          "name": "",
          "type": "address"
        }
      ],
      "stateMutability": "view",
      "type": "function"
    },
    {
      "inputs": [
        {
          "internalType": "address",
          "name": "user",
          "type": "address"
        },
        {
          "internalType": "uint256",
          "name": "index",
          "type": "uint256"
        }
      ],
      "name": "getUserPayment",
      "outputs": [
        {
          "internalType": "string",
          "name": "transactionId",
          "type": "string"
        },
        {
          "internalType": "string",
          "name": "merchant",
          "type": "string"
        },
        {
          "internalType": "uint256",
          "name": "amount",
          "type": "uint256"
        },
        {
          "internalType": "bool",
          "name": "isTrusted",
          "type": "bool"
        },
        {
          "internalType": "string",
          "name": "ipfsHash",
          "type": "string"
        },
        {
          "internalType": "uint256",
          "name": "timestamp",
          "type": "uint256"
        },
        {
          "internalType": "int256",
          "name": "scoreDelta",
          "type": "int256"
        }
      ],
      "stateMutability": "view",
      "type": "function"
    },
    {
      "inputs": [
        {
          "internalType": "address",
          "name": "user",
          "type": "address"
        }
      ],
      "name": "getUserPaymentCount",
      "outputs": [
        {
          "internalType": "uint256",
          "name": "",
          "type": "uint256"
        }
      ],
      "stateMutability": "view",
      "type": "function"
    },
    {
      "inputs": [
        {
          "internalType": "string",
          "name": "transactionId",
          "type": "string"
        }
      ],
      "name": "isTransactionProcessed",
      "outputs": [
        {
          "internalType": "bool",
          "name": "",
          "type": "bool"
        }
      ],
      "stateMutability": "view",
      "type": "function"
    },
    {
      "inputs": [],
      "name": "merchantRegistry",
      "outputs": [
        {
          "internalType": "contract MerchantRegistry",
          "name": "",
          "type": "address"
        }
      ],
      "stateMutability": "view",
      "type": "function"
    },
    {
      "inputs": [],
      "name": "owner",
      "outputs": [
        {
          "internalType": "address",
          "name": "",
          "type": "address"
        }
      ],
      "stateMutability": "view",
      "type": "function"
    },
    {
      "inputs": [
        {
          "internalType": "bytes32",
          "name": "",
          "type": "bytes32"
        }
      ],
      "name": "processedTransactions",
      "outputs": [
        {
          "internalType": "bool",
          "name": "",
          "type": "bool"
        }
      ],
      "stateMutability": "view",
      "type": "function"
    },
    {
      "inputs": [
        {
          "internalType": "address",
          "name": "user",
          "type": "address"
        },
        {
          "internalType": "string",
          "name": "transactionId",
          "type": "string"
        },
        {
          "internalType": "string",
          "name": "merchant",
          "type": "string"
        },
        {
          "internalType": "uint256",
          "name": "amount",
          "type": "uint256"
        },
        {
          "internalType": "bool",
          "name": "isTrusted",
          "type": "bool"
        },
        {
          "internalType": "string",
          "name": "ipfsHash",
          "type": "string"
        }
      ],
      "name": "recordPayment",
      "outputs": [],
      "stateMutability": "nonpayable",
      "type": "function"
    },
    {
      "inputs": [
        {
          "internalType": "address",
          "name": "user",
          "type": "address"
        },
        {
          "internalType": "string",
          "name": "transactionId",
          "type": "string"
        },
        {
          "internalType": "bool",
          "name": "isLate",
          "type": "bool"
        },
        {
          "internalType": "string",
          "name": "ipfsHash",
          "type": "string"
        }
      ],
      "name": "recordRepayment",
      "outputs": [],
      "stateMutability": "nonpayable",
      "type": "function"
    },
    {
      "inputs": [],
      "name": "renounceOwnership",
      "outputs": [],
      "stateMutability": "nonpayable",
      "type": "function"
    },
    {
      "inputs": [
        {
          "internalType": "string",
          "name": "transactionId",
          "type": "string"
        }
      ],
      "name": "resetTransaction",
      "outputs": [],
      "stateMutability": "nonpayable",
      "type": "function"
    },
    {
      "inputs": [
        {
          "internalType": "address",
          "name": "newOwner",
          "type": "address"
        }
      ],
      "name": "transferOwnership",
      "outputs": [],
      "stateMutability": "nonpayable",
      "type": "function"
    },
    {
      "inputs": [
        {
          "internalType": "address",
          "name": "",
          "type": "address"
        },
        {
          "internalType": "uint256",
          "name": "",
          "type": "uint256"
        }
      ],
      "name": "userPayments",
      "outputs": [
        {
          "internalType": "address",
          "name": "user",
          "type": "address"
        },
        {
          "internalType": "string",
          "name": "transactionId",
          "type": "string"
        },
        {
          "internalType": "string",
          "name": "merchant",
          "type": "string"
        },
        {
          "internalType": "uint256",
          "name": "amount",
          "type": "uint256"
        },
        {
          "internalType": "bool",
          "name": "isTrusted",
          "type": "bool"
        },
        {
          "internalType": "string",
          "name": "ipfsHash",
          "type": "string"
        },
        {
          "internalType": "uint256",
          "name": "timestamp",
          "type": "uint256"
        },
        {
          "internalType": "int256",
          "name": "scoreDelta",
          "type": "int256"
        }
      ],
      "stateMutability": "view",
      "type": "function"
    }
  ],
  "bytecode": "0x60806040523480156200001157600080fd5b5060405162001c4838038062001c488339810160408190526200003491620000f7565b6200003f336200008a565b600180546001600160a01b038085166001600160a01b03199283161790925560028054848416921691909117905583163314620000815762000081836200008a565b50505062000141565b600080546001600160a01b038381166001600160a01b0319831681178455604051919092169283917f8be0079c531659141344cd1fd0a4f28419497f9722a3daafe3b4186f6b6457e09190a35050565b80516001600160a01b0381168114620000f257600080fd5b919050565b6000806000606084860312156200010d57600080fd5b6200011884620000da565b92506200012860208501620000da565b91506200013860408501620000da565b90509250925092565b611af780620001516000396000f3fe608060405234801561001057600080fd5b50600436106101215760003560e01c806387258982116100ad578063a882911911610071578063a882911914610272578063ac2e493614610285578063c32d529d146102a8578063e0f245eb146102bb578063f2fde38b146102ce57600080fd5b806387258982146101e85780638cfeab351461020b5780638da5cb5b1461023257806393ab938b14610243578063a7e7ec701461024c57600080fd5b8063650a6ea9116100f4578063650a6ea9146101895780636eca5042146101915780636f4114e9146101a4578063715018a6146101b75780638362492f146101bf57600080fd5b806321a49a5a14610126578063486bd4a91461015657806357de17af1461016c5780635ba9ecd814610174575b600080fd5b600154610139906001600160a01b031681565b6040516001600160a01b0390911681526020015b60405180910390f35b61015e602881565b60405190815260200161014d565b61015e600a81565b6101876101823660046113e2565b6102e1565b005b61015e601481565b600254610139906001600160a01b031681565b6101876101b236600461143b565b610337565b610187610363565b61015e6101cd36600461143b565b6001600160a01b031660009081526004602052604090205490565b6101fb6101f63660046113e2565b610377565b604051901515815260200161014d565b61021e61021936600461145d565b6103bd565b60405161014d9897969594939291906114d7565b6000546001600160a01b0316610139565b61015e601d1981565b61025f61025a36600461145d565b6105c9565b60405161014d979695949392919061154a565b6101876102803660046115b6565b610864565b6101fb61029336600461166c565b60036020526000908152604090205460ff1681565b6101876102b6366004611685565b610da1565b61015e6102c936600461166c565b611112565b6101876102dc36600461143b565b611133565b6102e96111a9565b60006003600083604051602001610300919061170e565b60408051808303601f19018152918152815160209283012083529082019290925201600020805460ff191691151591909117905550565b61033f6111a9565b6001600160a01b038116600090815260046020526040812061036091611253565b50565b61036b6111a9565b6103756000611203565b565b6000600360008360405160200161038e919061170e565b60408051601f198184030181529181528151602092830120835290820192909252016000205460ff1692915050565b600460205281600052604060002081815481106103d957600080fd5b6000918252602090912060089091020180546001820180546001600160a01b03909216945091925061040a9061172a565b80601f01602080910402602001604051908101604052809291908181526020018280546104369061172a565b80156104835780601f1061045857610100808354040283529160200191610483565b820191906000526020600020905b81548152906001019060200180831161046657829003601f168201915b5050505050908060020180546104989061172a565b80601f01602080910402602001604051908101604052809291908181526020018280546104c49061172a565b80156105115780601f106104e657610100808354040283529160200191610511565b820191906000526020600020905b8154815290600101906020018083116104f457829003601f168201915b50505050600383015460048401546005850180549495929460ff90921693509061053a9061172a565b80601f01602080910402602001604051908101604052809291908181526020018280546105669061172a565b80156105b35780601f10610588576101008083540402835291602001916105b3565b820191906000526020600020905b81548152906001019060200180831161059657829003601f168201915b5050505050908060060154908060070154905088565b60608060008060606000806000600460008b6001600160a01b03166001600160a01b03168152602001908152602001600020898154811061060c5761060c611764565b600091825260209182902060408051610100810190915260089092020180546001600160a01b03168252600181018054929391929184019161064d9061172a565b80601f01602080910402602001604051908101604052809291908181526020018280546106799061172a565b80156106c65780601f1061069b576101008083540402835291602001916106c6565b820191906000526020600020905b8154815290600101906020018083116106a957829003601f168201915b505050505081526020016002820180546106df9061172a565b80601f016020809104026020016040519081016040528092919081815260200182805461070b9061172a565b80156107585780601f1061072d57610100808354040283529160200191610758565b820191906000526020600020905b81548152906001019060200180831161073b57829003601f168201915b505050918352505060038201546020820152600482015460ff161515604082015260058201805460609092019161078e9061172a565b80601f01602080910402602001604051908101604052809291908181526020018280546107ba9061172a565b80156108075780601f106107dc57610100808354040283529160200191610807565b820191906000526020600020905b8154815290600101906020018083116107ea57829003601f168201915b5050505050815260200160068201548152602001600782015481525050905080602001518160400151826060015183608001518460a001518560c001518660e0015197509750975097509750975097505092959891949750929550565b6001600160a01b0386166108ae5760405162461bcd60e51b815260206004820152600c60248201526b50565f555345525f5a45524f60a01b60448201526064015b60405180910390fd5b60008551116108ec5760405162461bcd60e51b815260206004820152600a602482015269141597d393d7d516125160b21b60448201526064016108a5565b600084511161092e5760405162461bcd60e51b815260206004820152600e60248201526d141597d393d7d3515490d210539560921b60448201526064016108a5565b600085604051602001610941919061170e565b60408051601f1981840301815291815281516020928301206000818152600390935291205490915060ff16156109a55760405162461bcd60e51b8152602060048201526009602482015268141597d1155417d25160ba1b60448201526064016108a5565b600081815260036020526040808220805460ff1916600190811790915560058054808301825593527f036b6384b5eca791c62761152d0c79bb0604c104a5fb6f4eb0703f3154bb3db090920183905590549051634dc30e8760e01b81526001600160a01b03898116600483015290911690634dc30e8790602401602060405180830381865afa158015610a3c573d6000803e3d6000fd5b505050506040513d601f19601f82011682018060405250810190610a60919061177a565b610b6a57600154604051630bd5484760e41b81526001600160a01b0389811660048301529091169063bd548470906024016020604051808303816000875af1925050508015610acc575060408051601f3d908101601f19168201909252610ac991810190611797565b60015b610b6857610ad86117b0565b806308c379a003610b2e5750610aec6117cc565b80610af75750610b30565b80604051602001610b089190611856565b60408051601f198184030181529082905262461bcd60e51b82526108a59160040161188c565b505b60405162461bcd60e51b815260206004820152600d60248201526c50565f4d494e545f50414e494360981b60448201526064016108a5565b505b600083610b7857600a610b7b565b60145b600154604051630cc9ec5b60e01b81529192506001600160a01b031690630cc9ec5b90610bb0908b908590889060040161189f565b600060405180830381600087803b158015610bca57600080fd5b505af1925050508015610bdb575060015b610c5257610be76117b0565b806308c379a003610c175750610bfb6117cc565b80610c065750610c19565b80604051602001610b0891906118cf565b505b60405162461bcd60e51b815260206004820152600e60248201526d50565f53434f52455f50414e494360901b60448201526064016108a5565b6001600160a01b0388811660008181526004602090815260408083208151610100810183529485528483018d81529185018c9052606085018b9052891515608086015260a085018990524260c086015260e0850187905280546001808201835591855292909320845160089093020180546001600160a01b031916929095169190911784555191929190820190610ce99082611955565b5060408201516002820190610cfe9082611955565b5060608201516003820155608082015160048201805460ff191691151591909117905560a08201516005820190610d359082611955565b5060c0820151816006015560e082015181600701555050876001600160a01b03167f29fb2626735e9f0471ce81dc3e5791be429fa59f84d991138d5300010c7df8f9888888888642604051610d8f96959493929190611a15565b60405180910390a25050505050505050565b600083604051602001610db4919061170e565b60408051601f1981840301815291815281516020928301206000818152600390935291205490915060ff1615610e2c5760405162461bcd60e51b815260206004820152601860248201527f4475706c6963617465207472616e73616374696f6e204944000000000000000060448201526064016108a5565b60008181526003602052604090819020805460ff19166001908117909155549051634dc30e8760e01b81526001600160a01b03878116600483015290911690634dc30e8790602401602060405180830381865afa158015610e91573d6000803e3d6000fd5b505050506040513d601f19601f82011682018060405250810190610eb5919061177a565b610f2b57600154604051630bd5484760e41b81526001600160a01b0387811660048301529091169063bd548470906024016020604051808303816000875af1158015610f05573d6000803e3d6000fd5b505050506040513d601f19601f82011682018060405250810190610f299190611797565b505b600083610f39576028610f3d565b601d195b600154604051630cc9ec5b60e01b81529192506001600160a01b031690630cc9ec5b90610f729089908590889060040161189f565b600060405180830381600087803b158015610f8c57600080fd5b505af1158015610fa0573d6000803e3d6000fd5b5050506001600160a01b0380881660008181526004602090815260408083208151610100810183529485528483018c815282518084018452600e81526d131bd85b8814995c185e5b595b9d60921b8186015292860192909252606085018490528a15608086015260a085018a90524260c086015260e085018890528054600181810183559185529290932084516008909302018054929095166001600160a01b03199092169190911784555191935082019061105c9082611955565b50604082015160028201906110719082611955565b5060608201516003820155608082015160048201805460ff191691151591909117905560a082015160058201906110a89082611955565b5060c0820151816006015560e082015181600701555050856001600160a01b03167f29fb2626735e9f0471ce81dc3e5791be429fa59f84d991138d5300010c7df8f986600087158542604051611102959493929190611a60565b60405180910390a2505050505050565b6005818154811061112257600080fd5b600091825260209091200154905081565b61113b6111a9565b6001600160a01b0381166111a05760405162461bcd60e51b815260206004820152602660248201527f4f776e61626c653a206e6577206f776e657220697320746865207a65726f206160448201526564647265737360d01b60648201526084016108a5565b61036081611203565b6000546001600160a01b031633146103755760405162461bcd60e51b815260206004820181905260248201527f4f776e61626c653a2063616c6c6572206973206e6f7420746865206f776e657260448201526064016108a5565b600080546001600160a01b038381166001600160a01b0319831681178455604051919092169283917f8be0079c531659141344cd1fd0a4f28419497f9722a3daafe3b4186f6b6457e09190a35050565b508054600082556008029060005260206000209081019061036091905b808211156112dd5780546001600160a01b0319168155600061129560018301826112e1565b6112a36002830160006112e1565b60006003830181905560048301805460ff191690556112c69060058401906112e1565b506000600682018190556007820155600801611270565b5090565b5080546112ed9061172a565b6000825580601f106112fd575050565b601f01602090049060005260206000209081019061036091905b808211156112dd5760008155600101611317565b634e487b7160e01b600052604160045260246000fd5b601f8201601f1916810167ffffffffffffffff811182821017156113675761136761132b565b6040525050565b600082601f83011261137f57600080fd5b813567ffffffffffffffff8111156113995761139961132b565b6040516113b0601f8301601f191660200182611341565b8181528460208386010111156113c557600080fd5b816020850160208301376000918101602001919091529392505050565b6000602082840312156113f457600080fd5b813567ffffffffffffffff81111561140b57600080fd5b6114178482850161136e565b949350505050565b80356001600160a01b038116811461143657600080fd5b919050565b60006020828403121561144d57600080fd5b6114568261141f565b9392505050565b6000806040838503121561147057600080fd5b6114798361141f565b946020939093013593505050565b60005b838110156114a257818101518382015260200161148a565b50506000910152565b600081518084526114c3816020860160208601611487565b601f01601f19169290920160200192915050565b6001600160a01b0389168152610100602082018190526000906114fc8382018b6114ab565b90508281036040840152611510818a6114ab565b9050876060840152861515608084015282810360a084015261153281876114ab565b60c0840195909552505060e001529695505050505050565b60e08152600061155d60e083018a6114ab565b828103602084015261156f818a6114ab565b90508760408401528615156060840152828103608084015261159181876114ab565b60a0840195909552505060c0015295945050505050565b801515811461036057600080fd5b60008060008060008060c087890312156115cf57600080fd5b6115d88761141f565b9550602087013567ffffffffffffffff808211156115f557600080fd5b6116018a838b0161136e565b9650604089013591508082111561161757600080fd5b6116238a838b0161136e565b9550606089013594506080890135915061163c826115a8565b90925060a0880135908082111561165257600080fd5b5061165f89828a0161136e565b9150509295509295509295565b60006020828403121561167e57600080fd5b5035919050565b6000806000806080858703121561169b57600080fd5b6116a48561141f565b9350602085013567ffffffffffffffff808211156116c157600080fd5b6116cd8883890161136e565b9450604087013591506116df826115a8565b909250606086013590808211156116f557600080fd5b506117028782880161136e565b91505092959194509250565b60008251611720818460208701611487565b9190910192915050565b600181811c9082168061173e57607f821691505b60208210810361175e57634e487b7160e01b600052602260045260246000fd5b50919050565b634e487b7160e01b600052603260045260246000fd5b60006020828403121561178c57600080fd5b8151611456816115a8565b6000602082840312156117a957600080fd5b5051919050565b600060033d11156117c95760046000803e5060005160e01c5b90565b600060443d10156117da5790565b6040516003193d81016004833e81513d67ffffffffffffffff816024840111818411171561180a57505050505090565b82850191508151818111156118225750505050505090565b843d870101602082850101111561183c5750505050505090565b61184b60208286010187611341565b509095945050505050565b6d0282b2fa6a4a72a2fa320a4a61d160951b81526000825161187f81600e850160208701611487565b91909101600e0192915050565b60208152600061145660208301846114ab565b60018060a01b03841681528260208201526060604082015260006118c660608301846114ab565b95945050505050565b6e0282b2fa9a1a7a922afa320a4a61d1608d1b8152600082516118f981600f850160208701611487565b91909101600f0192915050565b601f82111561195057600081815260208120601f850160051c8101602086101561192d5750805b601f850160051c820191505b8181101561194c57828155600101611939565b5050505b505050565b815167ffffffffffffffff81111561196f5761196f61132b565b6119838161197d845461172a565b84611906565b602080601f8311600181146119b857600084156119a05750858301515b600019600386901b1c1916600185901b17855561194c565b600085815260208120601f198616915b828110156119e7578886015182559484019460019091019084016119c8565b5085821015611a055787850151600019600388901b60f8161c191681555b5050505050600190811b01905550565b60c081526000611a2860c08301896114ab565b8281036020840152611a3a81896114ab565b604084019790975250509215156060840152608083019190915260a09091015292915050565b60c081526000611a7360c08301886114ab565b8281036020840152600e81526d131bd85b8814995c185e5b595b9d60921b60208201526040810191505085604083015284151560608301528360808301528260a0830152969550505050505056fea264697066735822122009bfa8cb0069a1d53fea03e331a183d3a51fcf74ad3f7b42124fd84c4b4ed8f264736f6c63430008140033",
  "linkReferences": {},
  "deployedLinkReferences": {}
}