{
  "_format": "hh-sol-artifact-1",
  "contractName": "CreditDelegation",
  "sourceName": "src/CreditDelegation.sol",
  "abi": [
    {
      "inputs": [
        {
          "internalType": "address",
          "name": "initialOwner",
          "type": "address"
        },
        {
          "internalType": "address",
          "name": "_creditPassport",
          "type": "address"
        }
      ],
      "stateMutability": "nonpayable",
      "type": "constructor"
    },
    {
      "anonymous": false,
      "inputs": [
        {
          "indexed": true,
          "internalType": "address",
          "name": "delegator",
          "type": "address"
        },
        {
          "indexed": true,
          "internalType": "address",
          "name": "delegatee",
          "type": "address"
        },
        {
          "indexed": false,
          "internalType": "uint256",
          "name": "points",
          "type": "uint256"
        }
      ],
      "name": "DelegationCreated",
      "type": "event"
    },
    {
      "anonymous": false,
      "inputs": [
        {
          "indexed": true,
          "internalType": "address",
          "name": "delegator",
          "type": "address"
        },
        {
          "indexed": true,
          "internalType": "address",
          "name": "delegatee",
          "type": "address"
        },
        {
          "indexed": false,
          "internalType": "uint256",
          "name": "points",
          "type": "uint256"
        },
        {
          "indexed": false,
          "internalType": "bool",
          "name": "defaulted",
          "type": "bool"
        }
      ],
      "name": "DelegationRevoked",
      "type": "event"
    },
    {
      "anonymous": false,
      "inputs": [
        {
          "indexed": true,
          "internalType": "address",
          "name": "delegator",
          "type": "address"
        },
        {
          "indexed": false,
          "internalType": "uint256",
          "name": "pointsLost",
          "type": "uint256"
        }
      ],
      "name": "DelegationSlashed",
      "type": "event"
    },
    {
      "anonymous": false,
      "inputs": [
        {
          "indexed": true,
          "internalType": "address",
          "name": "previousOwner",
          "type": "address"
        },
        {
          "indexed": true,
          "internalType": "address",
          "name": "newOwner",
          "type": "address"
        }
      ],
      "name": "OwnershipTransferred",
      "type": "event"
    },
    {
      "inputs": [],
      "name": "MAX_DELEGATION_PERCENT",
      "outputs": [
        {
          "internalType": "uint256",
          "name": "",
          "type": "uint256"
        }
      ],
      "stateMutability": "view",
      "type": "function"
    },
    {
      "inputs": [],
      "name": "MIN_SCORE_TO_DELEGATE",
      "outputs": [
        {
          "internalType": "uint256",
          "name": "",
          "type": "uint256"
        }
      ],
      "stateMutability": "view",
      "type": "function"
    },
    {
      "inputs": [],
      "name": "creditPassport",
      "outputs": [
        {
          "internalType": "contract CreditPassport",
          "name": "",
          "type": "address"
        }
      ],
      "stateMutability": "view",
      "type": "function"
    },
    {
      "inputs": [
        {
          "internalType": "address",
          "name": "delegatee",
          "type": "address"
        },
        {
          "internalType": "uint256",
          "name": "points",
          "type": "uint256"
        }
      ],
      "name": "delegate",
      "outputs": [],
      "stateMutability": "nonpayable",
      "type": "function"
    },
    {
      "inputs": [
        {
          "internalType": "address",
          "name": "",
          "type": "address"
        },
        {
          "internalType": "uint256",
          "name": "",
          "type": "uint256"
        }
      ],
      "name": "delegateeDelegators",
      "outputs": [
        {
          "internalType": "address",
          "name": "",
          "type": "address"
        }
      ],
      "stateMutability": "view",
      "type": "function"
    },
    {
      "inputs": [
        {
          "internalType": "address",
          "name": "",
          "type": "address"
        },
        {
          "internalType": "address",
          "name": "",
          "type": "address"
        }
      ],
      "name": "delegations",
      "outputs": [
        {
          "internalType": "address",
          "name": "delegator",
          "type": "address"
        },
        {
          "internalType": "address",
          "name": "delegatee",
          "type": "address"
        },
        {
          "internalType": "uint256",
          "name": "points",
          "type": "uint256"
        },
        {
          "internalType": "uint256",
          "name": "timestamp",
          "type": "uint256"
        },
        {
          "internalType": "bool",
          "name": "isActive",
          "type": "bool"
        }
      ],
      "stateMutability": "view",
      "type": "function"
    },
    {
      "inputs": [
        {
          "internalType": "address",
          "name": "wallet",
          "type": "address"
        }
      ],
      "name": "getDelegatedPoints",
      "outputs": [
        {
          "internalType": "uint256",
          "name": "",
          "type": "uint256"
        }
      ],
      "stateMutability": "view",
      "type": "function"
    },
    {
      "inputs": [
        {
          "internalType": "address",
          "name": "delegator",
          "type": "address"
        },
        {
          "internalType": "address",
          "name": "delegatee",
          "type": "address"
        }
      ],
      "name": "getDelegation",
      "outputs": [
        {
          "internalType": "uint256",
          "name": "points",
          "type": "uint256"
        },
        {
          "internalType": "uint256",
          "name": "timestamp",
          "type": "uint256"
        },
        {
          "internalType": "bool",
          "name": "isActive",
          "type": "bool"
        }
      ],
      "stateMutability": "view",
      "type": "function"
    },
    {
      "inputs": [
        {
          "internalType": "address",
          "name": "wallet",
          "type": "address"
        }
      ],
      "name": "getEffectiveScore",
      "outputs": [
        {
          "internalType": "uint256",
          "name": "",
          "type": "uint256"
        }
      ],
      "stateMutability": "view",
      "type": "function"
    },
    {
      "inputs": [],
      "name": "owner",
      "outputs": [
        {
          "internalType": "address",
          "name": "",
          "type": "address"
        }
      ],
      "stateMutability": "view",
      "type": "function"
    },
    {
      "inputs": [],
      "name": "renounceOwnership",
      "outputs": [],
      "stateMutability": "nonpayable",
      "type": "function"
    },
    {
      "inputs": [
        {
          "internalType": "address",
          "name": "delegatee",
          "type": "address"
        }
      ],
      "name": "revokeDelegation",
      "outputs": [],
      "stateMutability": "nonpayable",
      "type": "function"
    },
    {
      "inputs": [
        {
          "internalType": "address",
          "name": "delegator",
          "type": "address"
        },
        {
          "internalType": "address",
          "name": "defaultedDelegatee",
          "type": "address"
        }
      ],
      "name": "slashDelegator",
      "outputs": [],
      "stateMutability": "nonpayable",
      "type": "function"
    },
    {
      "inputs": [
        {
          "internalType": "address",
          "name": "",
          "type": "address"
        }
      ],
      "name": "totalDelegatedFrom",
      "outputs": [
        {
          "internalType": "uint256",
          "name": "",
          "type": "uint256"
        }
      ],
      "stateMutability": "view",
      "type": "function"
    },
    {
      "inputs": [
        {
          "internalType": "address",
          "name": "",
          "type": "address"
        }
      ],
      "name": "totalDelegatedTo",
      "outputs": [
        {
          "internalType": "uint256",
          "name": "",
          "type": "uint256"
        }
      ],
      "stateMutability": "view",
      "type": "function"
    },
    {
      "inputs": [
        {
          "internalType": "address",
          "name": "newOwner",
          "type": "address"
        }
      ],
      "name": "transferOwnership",
      "outputs": [],
      "stateMutability": "nonpayable",
      "type": "function"
    }
  ],
  "bytecode": "0x60806040523480156200001157600080fd5b50604051620012cb380380620012cb8339810160408190526200003491620000e9565b6200003f336200007c565b600180546001600160a01b0319166001600160a01b03838116919091179091553390831614620000745762000074826200007c565b505062000121565b600080546001600160a01b038381166001600160a01b0319831681178455604051919092169283917f8be0079c531659141344cd1fd0a4f28419497f9722a3daafe3b4186f6b6457e09190a35050565b80516001600160a01b0381168114620000e457600080fd5b919050565b60008060408385031215620000fd57600080fd5b6200010883620000cc565b91506200011860208401620000cc565b90509250929050565b61119a80620001316000396000f3fe608060405234801561001057600080fd5b50600436106101005760003560e01c80638da5cb5b11610097578063d7f9088911610066578063d7f908891461030e578063ee66ce031461032e578063f2fde38b14610357578063fbe81d361461036a57600080fd5b80638da5cb5b14610258578063a7fc4e4614610269578063c1bf1b9b14610271578063c64814dd1461028457600080fd5b806329aad6d8116100d357806329aad6d8146101fc5780634d8c819b1461021d578063715018a61461023d578063808d50141461024557600080fd5b8063026e402b1461010557806315049a5a1461011a57806321a49a5a146101be57806327da6831146101e9575b600080fd5b610118610113366004610eb5565b610372565b005b61019c610128366004610edf565b6001600160a01b039182166000908152600260208181526040808420948616845293815291839020835160a08101855281548616815260018201549095169285019290925281015491830182905260038101546060840181905260049091015460ff16151560809093018390529092909190565b6040805193845260208401929092521515908201526060015b60405180910390f35b6001546101d1906001600160a01b031681565b6040516001600160a01b0390911681526020016101b5565b6101186101f7366004610edf565b610911565b61020f61020a366004610f12565b610b29565b6040519081526020016101b5565b61020f61022b366004610f12565b60046020526000908152604090205481565b610118610bfe565b610118610253366004610f12565b610c12565b6000546001600160a01b03166101d1565b61020f606481565b6101d161027f366004610eb5565b610d3e565b6102d9610292366004610edf565b60026020818152600093845260408085209091529183529120805460018201549282015460038301546004909301546001600160a01b039283169490921692909160ff1685565b604080516001600160a01b0396871681529590941660208601529284019190915260608301521515608082015260a0016101b5565b61020f61031c366004610f12565b60036020526000908152604090205481565b61020f61033c366004610f12565b6001600160a01b031660009081526003602052604090205490565b610118610365366004610f12565b610d76565b61020f601e81565b336001600160a01b038316036103cf5760405162461bcd60e51b815260206004820152601b60248201527f43616e6e6f742064656c656761746520746f20796f757273656c66000000000060448201526064015b60405180910390fd5b6000811161041f5760405162461bcd60e51b815260206004820152601d60248201527f4d7573742064656c656761746520706f73697469766520706f696e747300000060448201526064016103c6565b6001546040516315e9624f60e21b815233600482015260009182916001600160a01b03909116906357a5893c90602401600060405180830381865afa15801561046c573d6000803e3d6000fd5b505050506040513d6000823e601f3d908101601f191682016040526104949190810190610ff0565b97505050505050509150806104ff5760405162461bcd60e51b815260206004820152602b60248201527f596f75206d75737420686176652061204372656469742050617373706f72742060448201526a746f2064656c656761746560a81b60648201526084016103c6565b60648210156105635760405162461bcd60e51b815260206004820152602a60248201527f4372656469742073636f726520746f6f206c6f7720746f2064656c656761746560448201526920286d696e203130302960b01b60648201526084016103c6565b60006064610572601e856110b4565b61057c91906110d1565b33600090815260046020526040902054909150819061059c9086906110f3565b11156106045760405162461bcd60e51b815260206004820152603160248201527f45786365656473206d6178696d756d2064656c6567617461626c6520706f696e60448201527074732028333025206f662073636f72652960781b60648201526084016103c6565b828411156106675760405162461bcd60e51b815260206004820152602a60248201527f43616e6e6f742064656c6567617465206d6f7265207468616e20796f757220746044820152696f74616c2073636f726560b01b60648201526084016103c6565b3360009081526002602090815260408083206001600160a01b038916845290915290206004015460ff1615610721573360009081526002602081815260408084206001600160a01b038a16855282528084209092015460039091529082208054919290916106d6908490611106565b90915550503360008181526002602081815260408084206001600160a01b038b168552825280842090920154938352600490528120805490919061071b908490611106565b90915550505b6040805160a081018252338082526001600160a01b0388811660208085018281528587018b81524260608801908152600160808901818152600098895260028087528b8a20978a529686528a892099518a546001600160a01b0319908116918a16919091178b559451918a01805490951691909716179092555192860192909255905160038086019190915591516004909401805460ff19169415159490941790935590915290812080548692906107da9084906110f3565b909155505033600090815260046020526040812080548692906107fe9084906110f3565b9091555060009050805b6001600160a01b03871660009081526005602052604090205481101561088a576001600160a01b038716600090815260056020526040902080543391908390811061085557610855611119565b6000918252602090912001546001600160a01b031603610878576001915061088a565b806108828161112f565b915050610808565b50806108c9576001600160a01b03861660009081526005602090815260408220805460018101825590835291200180546001600160a01b031916331790555b6040518581526001600160a01b0387169033907ff30d5f04d8ccb1d731ec50addde98da813e2697f466b244e045210fc90af12969060200160405180910390a3505050505050565b610919610def565b6001600160a01b0380831660009081526002602090815260408083209385168352929052206004015460ff166109915760405162461bcd60e51b815260206004820152601d60248201527f4e6f206163746976652064656c65676174696f6e20746f20736c61736800000060448201526064016103c6565b6001600160a01b0382811660009081526002602081815260408084209486168452938152838320918201546004909201805460ff191690556003905291812080548392906109e0908490611106565b90915550506001600160a01b03831660009081526004602052604081208054839290610a0d908490611106565b90915550506001546001600160a01b0316630cc9ec5b84610a2d84611148565b6040516001600160e01b031960e085901b1681526001600160a01b03909216600483015260248201526060604482015260006064820152608401600060405180830381600087803b158015610a8157600080fd5b505af1158015610a95573d6000803e3d6000fd5b505060408051848152600160208201526001600160a01b038087169450871692507fc5602f8e3faa8e09905baa54e801f299fb3caaf7c8e21e63ac58db98a0999eda910160405180910390a3826001600160a01b03167fd7e1a9fa0bde799ec1903911bce0f511928ebe7b9fa8b4cea5697e2f4ebd263682604051610b1c91815260200190565b60405180910390a2505050565b6001546040516315e9624f60e21b81526001600160a01b03838116600483015260009283928392909116906357a5893c90602401600060405180830381865afa158015610b7a573d6000803e3d6000fd5b505050506040513d6000823e601f3d908101601f19168201604052610ba29190810190610ff0565b9750505050505050915080610bbb575060009392505050565b6001600160a01b03841660009081526003602052604081205490610bdf82856110f3565b90506103528111610bf05780610bf4565b6103525b9695505050505050565b610c06610def565b610c106000610e49565b565b3360009081526002602090815260408083206001600160a01b038516845290915290206004015460ff16610c7f5760405162461bcd60e51b815260206004820152601460248201527327379030b1ba34bb32903232b632b3b0ba34b7b760611b60448201526064016103c6565b3360009081526002602081815260408084206001600160a01b03861685528252808420928301546004909301805460ff1916905560039091528220805491928392610ccb908490611106565b90915550503360009081526004602052604081208054839290610cef908490611106565b909155505060408051828152600060208201526001600160a01b0384169133917fc5602f8e3faa8e09905baa54e801f299fb3caaf7c8e21e63ac58db98a0999eda910160405180910390a35050565b60056020528160005260406000208181548110610d5a57600080fd5b6000918252602090912001546001600160a01b03169150829050565b610d7e610def565b6001600160a01b038116610de35760405162461bcd60e51b815260206004820152602660248201527f4f776e61626c653a206e6577206f776e657220697320746865207a65726f206160448201526564647265737360d01b60648201526084016103c6565b610dec81610e49565b50565b6000546001600160a01b03163314610c105760405162461bcd60e51b815260206004820181905260248201527f4f776e61626c653a2063616c6c6572206973206e6f7420746865206f776e657260448201526064016103c6565b600080546001600160a01b038381166001600160a01b0319831681178455604051919092169283917f8be0079c531659141344cd1fd0a4f28419497f9722a3daafe3b4186f6b6457e09190a35050565b80356001600160a01b0381168114610eb057600080fd5b919050565b60008060408385031215610ec857600080fd5b610ed183610e99565b946020939093013593505050565b60008060408385031215610ef257600080fd5b610efb83610e99565b9150610f0960208401610e99565b90509250929050565b600060208284031215610f2457600080fd5b610f2d82610e99565b9392505050565b634e487b7160e01b600052604160045260246000fd5b600082601f830112610f5b57600080fd5b815167ffffffffffffffff80821115610f7657610f76610f34565b604051601f8301601f19908116603f01168101908282118183101715610f9e57610f9e610f34565b81604052838152602092508683858801011115610fba57600080fd5b600091505b83821015610fdc5785820183015181830184015290820190610fbf565b600093810190920192909252949350505050565b600080600080600080600080610100898b03121561100d57600080fd5b885197506020890151965060408901519550606089015167ffffffffffffffff8082111561103a57600080fd5b6110468c838d01610f4a565b965060808b0151955060a08b015191508082111561106357600080fd5b506110708b828c01610f4a565b93505060c0890151915060e0890151801515811461108d57600080fd5b809150509295985092959890939650565b634e487b7160e01b600052601160045260246000fd5b80820281158282048414176110cb576110cb61109e565b92915050565b6000826110ee57634e487b7160e01b600052601260045260246000fd5b500490565b808201808211156110cb576110cb61109e565b818103818111156110cb576110cb61109e565b634e487b7160e01b600052603260045260246000fd5b6000600182016111415761114161109e565b5060010190565b6000600160ff1b820161115d5761115d61109e565b506000039056fea2646970667358221220860e4ff2a306757fa66eeabc29d6215d58610964d6a2c20765240069a2467aa764736f6c63430008140033",
  "linkReferences": {},
  "deployedLinkReferences": {}
}